:020000040800F2
:10000000B8090020490100082B060008AF050008C8
:10001000CD050008C10100087D11000800000000A6
:100020000000000000000000000000002D09000892
:10003000C50100080000000035080008C50B0008D5
:100040006301000863010008630100086301000800
:1000500063010008630100086301000863010008F0
:1000600063010008630100086301000863010008E0
:1000700063010008630100086301000863010008D0
:1000800063010008630100086301000863010008C0
:1000900063010008630100086301000863010008B0
:1000A00063010008630100086301000863010008A0
:1000B0006301000863010008630100086301000890
:1000C0006301000863010008630100086301000880
:1000D00063010008490F000863010008630100087C
:1000E0006301000863010008630100086301000860
:1000F0006301000863010008630100086301000850
:10010000630100086301000863010008630100083F
:10011000630100086301000863010008630100082F
:10012000630100086301000863010008630100081F
:10013000DFF810D000F02CF800480047CD1200087E
:10014000AFF30080B8090020064880470648004702
:10015000FEE7FEE7FEE7FEE7FEE7FEE7FEE7FEE777
:10016000FEE7FEE7C90B000831010008D2B201E04A
:1001700000F8012B491EFBD270470022F6E710B5AC
:1001800013460A4604461946FFF7F0FF204610BD05
:10019000064C074D06E0E06840F0010394E80700D4
:1001A00098471034AC42F6D3FFF7C6FF101700088B
:1001B0003017000810B50446204600F009FA10BDBB
:1001C00000BFFEE770472DE9F04F89B005460E46A7
:1001D0001746984613AC94E8100E202101A8FFF7AB
:1001E000CCFF8DF804504C208DF80500AE208DF822
:1001F00006008DF807608DF808708DF80980129858
:1002000000128DF80A001298C0B28DF80B00200E73
:100210008DF80C00200C8DF80D00200A8DF80E00D2
:10022000E0B28DF80F004FEA29208DF8100009F098
:10023000FF008DF811004FEA2A208DF812000AF015
:10024000FF008DF813004FEA2B208DF814000BF0FF
:10025000FF008DF8150017988DF816006B208DF8AB
:100260001700142101A801F0E9F909B0BDE8F08FE9
:100270007FB506460C46154600200090019002907E
:1002800003908DF800609A208DF801008DF80240EF
:100290008DF803506B208DF804000521684601F0AD
:1002A000CDF97FBD2DE9FF4706460F461546984616
:1002B000DDE90D9A0C9C00200090019002900390C3
:1002C0008DF80060FD208DF801008DF80270281275
:1002D0008DF80300E8B28DF804008DF80580200E3B
:1002E0008DF80600200C8DF80700200A8DF8080014
:1002F000E0B28DF809008DF80A908DF80BA06B2004
:100300008DF80C000D21684601F098F9BDE8FF87D3
:100310001FB50446002000900190029003908DF8D4
:1003200000400A208DF801006D208DF802006B203E
:100330008DF803000421684601F080F91FBD7FB5E8
:1003400005460C46002000900190029003908DF825
:100350000050FE208DF8010098208DF802008DF8E5
:1003600003406B208DF804000521684601F066F912
:100370007FBD1FB5044600200090019002900390BD
:100380008DF80040FF208DF8010066208DF80200F6
:100390006B208DF803000421684601F04FF91FBD62
:1003A0002DE9FF4105460F4614461E46DDF828801C
:1003B000002000900190029003908DF80050F620EC
:1003C0008DF801008DF8027020128DF80300E0B264
:1003D0008DF804008DF805608DF806806B208DF88F
:1003E00007000821684601F029F9BDE8FF812DE9E1
:1003F000F0410246002500260020002300240027AB
:1004000091F803C00CF00F0591F803C00CF0100C2C
:10041000BCF1000F03D091F802C04CEA050591F839
:1004200000C0BCF1000F31D0146800202BE04FF069
:10043000010C0CFA00F3B1F800C00CEA03069E426E
:1004400020D183004FF00F0C0CFA03F7BC4305FAE0
:1004500003FC4CEA040491F803C0BCF1280F06D158
:100460004FF0010C0CFA00FCC2F814C00AE091F83D
:1004700003C0BCF1480F05D14FF0010C0CFA00FC91
:10048000C2F810C0401C0828D1D31460B1F800C0D5
:10049000BCF1FF0F34DD546800202EE000F1080CA1
:1004A0004FF0010808FA0CF3B1F800C00CEA03069B
:1004B0009E4221D183004FF00F0C0CFA03F7BC438E
:1004C00005FA03FC4CEA040491F803C0BCF1280FC0
:1004D00005D100F1080C08FA0CF8C2F8148091F864
:1004E00003C0BCF1480F07D100F1080C4FF0010820
:1004F00008FA0CF8C2F81080401C0828CED35460CB
:10050000BDE8F081F0B50A46002300240021002553
:1005100000F00046B6F1004F02D11D4EF16901E036
:100520001B4E7168C0F3034583B200F44016B6F564
:10053000401F08D121F07061154E766826F0706674
:10054000134F7E6012E000F48016B6F5801F06D1CE
:10055000032606FA05F4A14341F0706106E0460D5A
:10056000360103FA06F6B14341F0706122B1460D3F
:10057000360103FA06F6314300F00046B6F1004FAB
:1005800002D1034EF16101E0014E7160F0BD000047
:10059000000001400246002093680B400BB101208F
:1005A00000E000207047416170470161704700BF63
:1005B000FEE70146C82901DDC820704711F1C80FC8
:1005C00002DA6FF0C700F8E70846F6E700BFFEE77B
:1005D00070B50546002408E0285D0121FFF7AFFE55
:1005E000052000F0F5FD601CC4B2042CF4DB0020F3
:1005F000FFF7BFFE70BD2DE9F84307460D461446D0
:10060000A846002C06DA0DB9012000E00020804643
:10061000604204B2A6B20120FF2332464146009058
:100620003846FFF7BDFEBDE8F883704770B500217E
:1006300000230F22C47804B3154C246804F4E0644A
:10064000C4F5E064210AC1F10403CA40447804FA05
:1006500003F184781440214309010E4C0678A1551A
:10066000047804F01F050124AC4005786D11AD003D
:1006700005F1E025C5F8004109E0047804F01F0504
:100680000124AC40044D0678761145F8264070BD33
:100690000CED00E000E400E080E100E002490143ED
:1006A000024A1160704700000000FA050CED00E0FE
:1006B00030B503460C4614B1C3F1800101E0A3F14B
:1006C000800111F10C0F03DD0C2901DA002030BD8F
:1006D00001FB02F07F2590FBF5F000B2F7E7000088
:1006E00008B50DE00021009102E00099491C00913D
:1006F00006490968064AB1FBF2F1009A9142F4D822
:10070000011EA0F10100EDD108BD00000400002091
:1007100000127A0008B50121042000F08DF81020A5
:10072000ADF8000048208DF8030003208DF802008A
:1007300069460E48FFF75BFEE020ADF80000102090
:100740008DF8030003208DF8020069460748FFF783
:100750004EFE20210548FFF728FF80210348FFF7C0
:1007600024FF40210148FFF720FF08BD0008014099
:1007700070B505460026012421E004EA050020B1F9
:1007800020211148FFF711FF03E020210E48FFF759
:100790000AFF80210C48FFF706FF1020FFF7A0FF9B
:1007A00010210948FFF7F6FE00B1264380210648D4
:1007B000FFF7FBFE1020FFF793FF6006040E002CEE
:1007C000DBDC304670BD00000008014070B5044617
:1007D00040211548FFF7E7FE002507E01349485D73
:1007E000FFF7C6FF12494855681CC5B2092DF5DB55
:1007F00040210D48FFF7D9FE0D48407820700C4885
:10080000C078C04360700A480079C043A0700848AF
:100810004079E0700648807920710548C0796071A0
:100820000348007AA07170BD000801400417000859
:10083000AE0100207047000029B1064A92690243C8
:10084000044B9A6104E0034A92698243014B9A6126
:10085000704700000010024030B500210022002443
:1008600000232D4D6D6805F00C0121B1042905D040
:10087000082923D105E0294D056022E0274D0560B8
:100880001FE0254D6D6805F47012234D6D6805F469
:100890008034022505EB92421CB9214D5543056079
:1008A0000BE01D4D6D6805F400351DB11C4D554321
:1008B000056002E0194D5543056002E0174D0560E3
:1008C00000BF00BF144D6D6805F0F0010909154D1A
:1008D0006B5C0568DD4045600F4D6D6805F4E061B7
:1008E000090A104D6B5C4568DD4085600A4D6D68F6
:1008F00005F46051C90A0B4D6B5C4568DD40C5606D
:10090000054D6D6805F44041890B074D6B5CC5686A
:10091000B5FBF3F5056130BD0010024000127A000E
:1009200000093D001800002028000020704700004A
:1009300010B504462146024800F0ADFA10BD000093
:100940000034014010B504462146024800F0A5FAE3
:1009500010BD00000034014010B504462146024895
:1009600000F09DFA10BD00000034014000B589B0D0
:1009700001211020FFF760FF01214803FFF75CFF12
:100980004FF4E070ADF8200018208DF8230003200C
:100990008DF8220008A92348FFF729FD42F20F70C5
:1009A000ADF818008F20ADF814000020ADF8160047
:1009B000ADF81A0005A91C4800F074FA6020ADF8E3
:1009C00004000020ADF80C000120ADF8060040F254
:1009D000EE20ADF80A0001A9134800F04DF90021FE
:1009E000114800F095F901A90F4800F09BF900218A
:1009F0000D4800F0E9F901A90B4800F0F3F90021D6
:100A0000094800F03FFA0121074800F00DF90121E3
:100A1000054800F021F90121034800F011F909B05F
:100A200000BD000000100140003401402DE9F047F6
:100A300004460F4615469846DDE90869387818B12E
:100A400020883230208002E02088323820802088C0
:100A500040F2E241884201DD002038702088FA2807
:100A600001DA012038702088FFF762FF98F8000053
:100A700018B128883230288002E02888323828804F
:100A8000288840F2E241884202DD002088F8000018
:100A90002888FA2802DA012088F800002888FFF761
:100AA00051FF99F8000018B130883230308002E0F0
:100AB000308832383080308840F2E241884202DDAE
:100AC000002089F800003088FA2802DA012089F82D
:100AD00000003088FFF740FFBDE8F08710B500F058
:100AE00001F810BD0CB5002001900090334800685B
:100AF00040F480303149086000BF3048006800F49D
:100B0000003000900198401C0190009818B901989D
:100B1000B0F5A06FF1D12948006800F4003010B1A1
:100B20000120009001E0002000900098012843D1AE
:100B30002348006840F0100021490860084600681A
:100B400020F0030008600846006840F002000860DA
:100B50001A48406819494860084640684860084695
:100B6000406840F4806048600846406820F47C108B
:100B700048600846406840F4E8104860084600684D
:100B800040F08070086000BF0C48006800F0007002
:100B90000028F9D00948406820F003000749486060
:100BA0000846406840F00200486000BF03484068C3
:100BB00000F00C000828F9D10CBD00000010024024
:100BC000002002407047000010B51348006840F054
:100BD00001001149086008464068104908400E4964
:100BE0004860084600680E4908400B4908600846FE
:100BF000006820F4802008600846406820F4FE0069
:100C000048604FF41F008860FFF768FF4FF00060F6
:100C10000449086010BD0000001002400000FFF809
:100C2000FFFFF6FE08ED00E021B1028842F08002ED
:100C3000028004E002884FF67F731A4002807047FA
:100C400021B1028842F00102028004E002884FF6DE
:100C5000FE731A400280704731B1B0F8442042F46C
:100C60000042A0F8442005E0B0F84420C2F30E0290
:100C7000A0F844207047000070B500240022002333
:100C8000058C4FF6FE7635400584028C8388048BF4
:100C90004FF68F752C40B51E2C400D882C43751EC9
:100CA0002A400D892A434D882A43144DA8420BD06F
:100CB000134DA84208D0134DA84205D0124DA842AA
:100CC00002D0124DA84213D14FF6F7752A404D8934
:100CD0002A434FF6FB752A408D882A434FF6FF655D
:100CE0002B404FF6FF552B408D892B43CD892B434D
:100CF00083800483CD888586028470BD002C0140EA
:100D000000340140004001400044014000480140DF
:100D10000A460021018B4FF6F773194011430183F6
:100D20007047000070B5002400220023058C4FF6A8
:100D3000EF7635400584028C8388048B48F6FF7576
:100D40002C404FF6FF452C400D884FF6FF7606EA03
:100D500005252C434FF6DF752A400D8906EA051557
:100D60002A434D8806EA05152A43154DA84202D0AC
:100D7000144DA8421DD14FF67F752A404D894FF67C
:100D8000FF7606EA05152A434FF6BF752A408D887F
:100D900006EA05152A434FF6FF352B404FF2FF7543
:100DA0002B408D8906EA85052B43CD8906EA85050A
:100DB0002B4383800483CD880587028470BD0000A7
:100DC000002C0140003401400A460021018B4FF203
:100DD000FF7319404FF6FF7303EA0223194301839F
:100DE0007047000070B5002400220023058C4FF6E8
:100DF000FF6635400584028C8388848B4FF68F759F
:100E00002C404FF6FC752C400D882C434FF6FF55B7
:100E10002A400D894FF6FF7606EA05252A434D88BC
:100E200006EA05252A43154DA84202D0144DA842D2
:100E30001DD14FF2FF752A404D894FF6FF7606EA25
:100E400005252A434FF6FF352A408D8806EA0525F9
:100E50002A434EF6FF752B404DF6FF752B408D89CA
:100E600006EA05152B43CD8906EA05152B43838039
:100E70008483CD888587028470BD0000002C0140EA
:100E8000003401400A460021818B4FF6F773194068
:100E9000114381837047818670470187704781873E
:100EA00070470000002202881D4B98420ED01D4B57
:100EB00098420BD0B0F1804F08D01B4B984205D020
:100EC0001A4B984202D01A4B984204D14FF68F73B6
:100ED0001A404B881A43174B984207D0164B98423A
:100EE00004D04FF6FF431A40CB881A4302808B8808
:100EF00083850B8803850A4B98420BD0094B984297
:100F000008D00E4B984205D00D4B984202D00D4BA5
:100F1000984201D10B7A0386012383827047000037
:100F2000002C014000340140000400400008004053
:100F3000000C004000100040001400400040014040
:100F4000004401400048014008B50020009040F2F4
:100F500025511B4800F057F858B11949091D098857
:100F6000C8B200F07DF940F22551154800F030F884
:100F700025E040F22441124800F045F8F8B110484D
:100F800000880F48001D008800F082F90D490870A4
:100F9000002000900AE000F04BF90B49BDF800205A
:100FA0008854BDF80000401C80B20090BDF80000DD
:100FB000044909788842EEDB01200449087008BD25
:100FC00000380140010000202C000020000000201B
:100FD00010B50022002340F66A14A14200D100BFE0
:100FE0000A1201249440A3B2DC43048010BD21B155
:100FF000828942F40052828104E082894DF6FF73B7
:101000001A408281704770B50246002400230025F3
:10101000002040F66A16B14200D100BFC1F342156C
:1010200001F01F03012606FA03F3012D02D1968970
:10103000334006E0022D02D1168A334001E0968A41
:1010400033400C12012606FA04F41688344013B11A
:101050000CB1012000E0002070BDF0B50346002473
:1010600000260025002040F66A17B94200D100BFD3
:101070001846C1F3421401F01F06012707FA06F5CE
:10108000012C01D10C3004E0022C01D1103000E021
:1010900014301AB107682F43076002E00768AF43B6
:1010A0000760F0BD2DE9F04786B005460E460024E6
:1010B000A24600BFA1460027B08900B100BF2F465D
:1010C0002C8A4CF6FF700440F08804432C82AC89D3
:1010D0004EF6F3100440B088318908437189084303
:1010E0000443AC81AC8A4FF6FF400440B08904430E
:1010F000AC8201A8FFF7B0FB1F48874202D1DDF8A0
:1011000010A001E0DDF80CA0A88900F4004040B177
:101110000AEBCA0000EB0A1031684900B0FBF1F895
:1011200007E00AEBCA0000EB0A1031688900B0FB47
:10113000F1F86420B8FBF0F004012009642101FB00
:101140001089A88900F4004040B1322000EBC900AA
:10115000B0FBF1F000F00700044308E0322000EBA0
:1011600009106421B0FBF1F000F00F0004432C8162
:1011700006B0BDE8F08700000038014000BFFEE780
:1011800002E008C8121F08C1002AFAD17047704750
:10119000002001E001C1121F002AFBD1704710B5E9
:1011A00000F01AFA00F004F800F05EFA10BD00003A
:1011B00010B501210D20FFF73FFB01218803FFF748
:1011C0003BFB01210148FFF79DF910BD00023000F3
:1011D00008B5002100916FF07F414FF0E02251618E
:1011E000002191610521116114E000214FF0E022FE
:1011F00091610E4909684FF47A72B1FBF2F1C1F1C5
:101200008071009100BF4FF0E0218969009A9142FE
:10121000F9D8401E0028E8DC4FF0E021096921F0F0
:1012200001014FF0E022116108BD00000400002020
:1012300000200A4991F80111084A32F811001146BC
:1012400091F80111491C82F80111114691F8011120
:10125000802902DB002182F801117047AC000020D8
:101260000A4991F80011094A22F81100114691F833
:101270000011491C82F80011114691F800118029D3
:1012800002DB002182F8001170470000AC00002052
:101290000D4890F801010C4991F80011884208DCD2
:1012A000094890F80001084991F80111401A80B2EC
:1012B0007047054890F80101C0F18000024991F89B
:1012C0000011084480B2F3E7AC00002096B000277C
:1012D000B84600201590002400250026BDA0006817
:1012E0001090A14600200D9040F2EE200C900B9043
:1012F0000A9001200990002008900120079000200A
:10130000069082468346FFF74AFFFFF72FFBFFF761
:1013100001FA00BF09E010A9C85D0021FFF70FF82E
:101320000520FFF755FF781CC7B2042FF3DB4FF4FD
:10133000FA60FFF74DFF00204FF4FA713223CDE938
:101340000231CDE9041041F28830C8210023022285
:10135000CDE9001001210520FEF735FF0520FFF73C
:1013600037FF002202210520FEF782FF41F2707054
:10137000FFF72EFF0520FEF7CBFF0520FFF728FF24
:1013800000210520FEF7DBFF0520FFF721FF0120EC
:1013900006901EE10EA8FFF719FA9DF83800732891
:1013A00009D010A8FEF706FF002015900D9014201C
:1013B000FFF70EFF0DE19DF83A0000F00A000A2841
:1013C0000AD110A8FEF7F6FE0020159080460D9079
:1013D0001420FFF7FDFEFCE0159878B910A8FFF780
:1013E000F7F89DF8390000F0080008B101201590C9
:1013F00000200D901420FFF7EBFEEAE09DF83E0080
:10140000C8220121FFF754F904469DF83D00C82287
:101410000021FFF74DF906469DF83B0064220021AC
:10142000FFF746F90546002C48D1002E46D1002D85
:1014300044D10D98B0BB01200D904FF000090090F1
:101440009DF84000FF2300221146FEF7A9FF05206A
:10145000FFF7BEFE012000909DF84100FF2300220F
:101460001146FEF79DFF0520FFF7B2FE0120009018
:101470009DF84200FF2300221146FEF791FF052050
:10148000FFF7A6FE012000909DF84300FF230022F5
:101490001146FEF785FF0520FFF79AFE0020FEF7B4
:1014A00068FF04E0FFE709F114001FFA80F9B9F5BD
:1014B000FA7F45DB10A8FFF78BF841E000200D9084
:1014C0008146A119294408B2FFF773F81490A11BB3
:1014D000491B08B2FFF76DF81390A11B294408B20D
:1014E000FFF767F81290A119491B08B2FFF761F8DE
:1014F00011909DF840000021149AFFF77CF8052018
:10150000FFF766FE9DF841000121139AFFF773F87B
:101510000520FFF75DFE9DF842000021129AFFF7BB
:101520006AF80520FFF754FE9DF843000121119A47
:10153000FFF761F80520FFF74BFE0020FEF719FFCB
:101540009DF83A0000F00500052832D1B8F1000FEF
:1015500001D14FF001080BF0040010B10BF00100B5
:10156000C8B90698B8B1BAF1000F14D10020012112
:101570004FF4FA523223CDE9002102904FF49672D3
:101580000520FEF78FFE0520FFF722FE0020FEF764
:10159000F0FE4FF0010A3220FFF71AFE07A80AA951
:1015A00008AB0BAACDE9001009A90CA8FFF73EFA79
:1015B00009E0B8F1010F01D14FF00008BAF1000FB6
:1015C00001D04FF0000A9DF83AB01420FFF700FE5A
:1015D00000BFDFE60102030408B54FF44070FFF7D7
:1015E0005DF801208DF8030000208DF802008DF8D1
:1015F000010025208DF800006846FFF717F808BDA8
:1016000008B500210091C0F308010B4A11800AE0DF
:10161000BDF80010491C89B20091BDF80010B1F569
:10162000FA5F00DD08BD0449091F098801F0800147
:101630000029EDD000BFF5E70438014038B5044675
:101640000D4600200090009009E09DF80010605CBD
:10165000FFF7D6FF9DF80000401CC0B200909DF837
:101660000000A842F1DB38BD00B585B04FF4007032
:10167000ADF8100003208DF8120018208DF813002B
:1016800004A91E48FEF7B3FE4FF48060ADF81000C9
:1016900048208DF8130004A91848FEF7A8FE4FF45F
:1016A000E13000900020ADF80400ADF80600ADF880
:1016B0000800ADF80C000C20ADF80A00694610488F
:1016C000FFF7F0FC0E4800880D48001D008840F22E
:1016D00025510B48FFF77CFC012240F225510848B8
:1016E000FFF7BBFC012240F224410548FFF7B5FC9F
:1016F00001210348FFF77BFC05B000BD0008014055
:10170000003801400142000000000000000000001D
:1017100030170008000000202C0000008011000895
:101720005C1700082C0000208C09000090110008B4
:101730000000000000A24A040000000000000000B9
:101740000102030406070809000000000102030467
:0C17500001020304060708090204060851
:0400000508000131BD
:00000001FF
