:020000040800F2
:10000000B8090020490100089304000817040008FB
:1000100035040008A1010008C90F00080000000015
:10002000000000000000000000000000950700082C
:10003000A5010008000000009D0600084D09000809
:100040006301000863010008630100086301000800
:1000500063010008630100086301000863010008F0
:1000600063010008630100086301000863010008E0
:1000700063010008630100086301000863010008D0
:1000800063010008630100086301000863010008C0
:1000900063010008630100086301000863010008B0
:1000A00063010008630100086301000863010008A0
:1000B0006301000863010008630100086301000890
:1000C0006301000863010008630100086301000880
:1000D00063010008950D0008630100086301000832
:1000E0006301000863010008630100086301000860
:1000F0006301000863010008630100086301000850
:10010000630100086301000863010008630100083F
:10011000630100086301000863010008630100082F
:10012000630100086301000863010008630100081F
:10013000DFF810D000F01AF8004800471911000845
:10014000AFF30080B8090020064880470648004702
:10015000FEE7FEE7FEE7FEE7FEE7FEE7FEE7FEE777
:10016000FEE7FEE75109000831010008064C074D83
:1001700006E0E06840F0010394E807009847103477
:10018000AC42F6D3FFF7D8FFBC130008DC1300081D
:1001900010B50446204600F04FF900F027FB10BDD3
:1001A00000BFFEE770477FB505460C460020009073
:1001B0000190029003908DF80050FE208DF8010010
:1001C00098208DF802008DF803406B208DF8040014
:1001D0000521684601F088F87FBD1FB50446002060
:1001E00000900190029003908DF80040FF208DF860
:1001F000010066208DF802006B208DF803000421B9
:10020000684601F071F81FBD2DE9FF4105460F4614
:1002100014461E46DDF828800020009001900290D0
:1002200003908DF80050F6208DF801008DF80270D3
:1002300020128DF80300E0B28DF804008DF80560FF
:100240008DF806806B208DF807000821684601F0C4
:100250004BF8BDE8FF812DE9F0410246002500265C
:10026000002000230024002791F803C00CF00F05A4
:1002700091F803C00CF0100CBCF1000F03D091F802
:1002800002C04CEA050591F800C0BCF1000F31D066
:10029000146800202BE04FF0010C0CFA00F3B1F8C9
:1002A00000C00CEA03069E4220D183004FF00F0CE1
:1002B0000CFA03F7BC4305FA03FC4CEA040491F87A
:1002C00003C0BCF1280F06D14FF0010C0CFA00FC62
:1002D000C2F814C00AE091F803C0BCF1480F05D180
:1002E0004FF0010C0CFA00FCC2F810C0401C0828AA
:1002F000D1D31460B1F800C0BCF1FF0F34DD5468F5
:1003000000202EE000F1080C4FF0010808FA0CF371
:10031000B1F800C00CEA03069E4221D183004FF0E1
:100320000F0C0CFA03F7BC4305FA03FC4CEA040477
:1003300091F803C0BCF1280F05D100F1080C08FAB0
:100340000CF8C2F8148091F803C0BCF1480F07D133
:1003500000F1080C4FF0010808FA0CF8C2F8108000
:10036000401C0828CED35460BDE8F081F0B50A46A1
:10037000002300240021002500F00046B6F1004FC4
:1003800002D11D4EF16901E01B4E7168C0F30345B7
:1003900083B200F44016B6F5401F08D121F0706119
:1003A000154E766826F07066134F7E6012E000F4FA
:1003B0008016B6F5801F06D1032606FA05F4A14380
:1003C00041F0706106E0460D360103FA06F6B143CE
:1003D00041F0706122B1460D360103FA06F6314351
:1003E00000F00046B6F1004F02D1034EF16101E08A
:1003F000014E7160F0BD0000000001400246002087
:1004000093680B400BB1012000E000207047416170
:1004100070470161704700BFFEE70146C82901DD52
:10042000C820704711F1C80F02DA6FF0C700F8E773
:100430000846F6E700BFFEE770B50546002408E071
:10044000285D0121FFF7AFFE052000F0E7FD601CED
:10045000C4B2042CF4DB0020FFF7BFFE70BD2DE911
:10046000F84307460D461446A846002C06DA0DB997
:10047000012000E000208046604204B2A6B20120C4
:10048000C8233246414600903846FFF7BDFEBDE81E
:10049000F883704770B5002100230F22C47804B39D
:1004A000154C246804F4E064C4F5E064210AC1F149
:1004B0000403CA40447804FA03F1847814402143C9
:1004C00009010E4C0678A155047804F01F0501249B
:1004D000AC4005786D11AD0005F1E025C5F800418F
:1004E00009E0047804F01F050124AC40044D0678AF
:1004F000761145F8264070BD0CED00E000E400E008
:1005000080E100E002490143024A116070470000A7
:100510000000FA050CED00E010B502460B4613B1E1
:10052000C2F1800101E0A2F1800111F10C0F03DDA5
:100530000C2901DA002010BDC82048437F2490FB1D
:10054000F4F000B2F7E7000008B50DE000210091DB
:1005500002E00099491C009106490968064AB1FB6E
:10056000F2F1009A9142F4D8011EA0F10100EDD100
:1005700008BD00000400002000127A0008B5012127
:10058000042000F08DF81020ADF8000048208DF810
:10059000030003208DF8020069460E48FFF75BFE5A
:1005A000E020ADF8000010208DF8030003208DF846
:1005B000020069460748FFF74EFE20210548FFF775
:1005C00028FF80210348FFF724FF40210148FFF75F
:1005D00020FF08BD0008014070B505460026012433
:1005E00021E004EA050020B120211148FFF711FFA6
:1005F00003E020210E48FFF70AFF80210C48FFF797
:1006000006FF1020FFF7A0FF10210948FFF7F6FEB4
:1006100000B1264380210648FFF7FBFE1020FFF7BC
:1006200093FF6006040E002CDBDC304670BD00003A
:100630000008014070B5044640211548FFF7E7FE69
:10064000002507E01349485DFFF7C6FF12494855EA
:10065000681CC5B2092DF5DB40210D48FFF7D9FE16
:100660000D48407820700C48C078C04360700A483C
:100670000079C043A07008484079E070064880794E
:1006800020710548C07960710348007AA07170BD7F
:1006900000080140B0130008AE01002070470000C0
:1006A00029B1064A92690243044B9A6104E0034A65
:1006B00092698243014B9A6170470000001002402A
:1006C00030B500210022002400232D4D6D6805F077
:1006D0000C0121B1042905D0082923D105E0294DB9
:1006E000056022E0274D05601FE0254D6D6805F48B
:1006F0007012234D6D6805F48034022505EB92429B
:100700001CB9214D554305600BE01D4D6D6805F486
:1007100000351DB11C4D5543056002E0194D554390
:10072000056002E0174D056000BF00BF144D6D6805
:1007300005F0F0010909154D6B5C0568DD40456069
:100740000F4D6D6805F4E061090A104D6B5C45685A
:10075000DD4085600A4D6D6805F46051C90A0B4D96
:100760006B5C4568DD40C560054D6D6805F4404132
:10077000890B074D6B5CC568B5FBF3F5056130BDB2
:100780000010024000127A0000093D00180000200D
:1007900028000020704710B5962000F039F84FF47B
:1007A000FA6000F03BFCB42000F040F85A2000F062
:1007B0004BF84FF4FA6000F031FC5A2000F028F8B2
:1007C0004FF4FA6000F02AFC002000F02FF800201F
:1007D00000F03AF810BD10B5002000F027F8002016
:1007E00000F032F85A2000F013F810BD10B5FFF7F2
:1007F000F2FF10BD0146B42900DDB42101EB8100F8
:100800008000B422B0FBF2F0401D80B270470000BF
:1008100070B504462046FFF7EDFF0546294602481D
:1008200000F063FA70BD00000034014070B504466A
:100830002046FFF7DFFF05462946024800F053FA3D
:1008400070BD00000034014070B504462046FFF73B
:10085000D1FF05462946024800F043FA70BD00006A
:100860000034014010B500F001F810BD0CB50020B7
:10087000019000903348006840F4803031490860AE
:1008800000BF3048006800F4003000900198401C20
:100890000190009818B90198B0F5A06FF1D12948DE
:1008A000006800F4003010B10120009001E0002049
:1008B00000900098012843D12348006840F01000C0
:1008C000214908600846006820F0030008600846D7
:1008D000006840F0020008601A4840681949486002
:1008E0000846406848600846406840F480604860B8
:1008F0000846406820F47C1048600846406840F490
:10090000E81048600846006840F08070086000BF4A
:100910000C48006800F000700028F9D009484068D1
:1009200020F00300074948600846406840F0020094
:10093000486000BF0348406800F00C000828F9D167
:100940000CBD000000100240002002407047000073
:1009500010B51348006840F00100114908600846CE
:100960004068104908400E494860084600680E4932
:1009700008400B4908600846006820F480200860A1
:100980000846406820F4FE0048604FF41F0088606D
:10099000FFF768FF4FF000600449086010BD0000D9
:1009A000001002400000FFF8FFFFF6FE08ED00E037
:1009B00000B589B0012142F21000FFF771FE4FF43B
:1009C000E070ADF8200018208DF8230003208DF88A
:1009D000220008A92548FFF73EFCC720ADF8180003
:1009E00041F61F40ADF814000020ADF81A00ADF834
:1009F00016008DF81C0005A91D4800F079F960204B
:100A0000ADF804000120ADF806000F20ADF80A0093
:100A10000020ADF80C004FF48070ADF8100001A973
:100A2000134800F04FF80821114800F097F801A989
:100A30000F4800F09DF808210D4800F0EBF801A9DF
:100A40000B4800F0F5F80821094800F041F90121B0
:100A5000074800F00FF80121054800F017F80121C0
:100A6000034800F01FF809B000BD0000001001406D
:100A70000034014021B1028842F08002028004E08B
:100A800002884FF67F731A400280704721B10288B6
:100A900042F00102028004E002884FF6FE731A4021
:100AA0000280704731B1B0F8442042F40042A0F80F
:100AB000442005E0B0F84420C2F30E02A0F8442020
:100AC0007047000070B5002400220023058C4FF60B
:100AD000FE7635400584028C8388048B4FF68F7533
:100AE0002C40B51E2C400D882C43751E2A400D89C4
:100AF0002A434D882A43144DA8420BD0134DA842D7
:100B000008D0134DA84205D0124DA84202D0124D74
:100B1000A84213D14FF6F7752A404D892A434FF664
:100B2000FB752A408D882A434FF6FF652B404FF610
:100B3000FF552B408D892B43CD892B438380048324
:100B4000CD888586028470BD002C014000340140B0
:100B50000040014000440140004801400A46002195
:100B6000018B4FF6F7731940114301837047000062
:100B700070B5002400220023058C4FF6EF76354037
:100B80000584028C8388048B48F6FF752C404FF651
:100B9000FF452C400D884FF6FF7606EA05252C43CD
:100BA0004FF6DF752A400D8906EA05152A434D8860
:100BB00006EA05152A43154DA84202D0144DA84255
:100BC0001DD14FF67F752A404D894FF6FF7606EA14
:100BD00005152A434FF6BF752A408D8806EA05158C
:100BE0002A434FF6FF352B404FF2FF752B408D897E
:100BF00006EA85052B43CD8906EA85052B438380CC
:100C00000483CD880587028470BD0000002C01405C
:100C1000003401400A460021018B4FF2FF73194056
:100C20004FF6FF7303EA0223194301837047000064
:100C300070B5002400220023058C4FF6FF66354076
:100C40000584028C8388848B4FF68F752C404FF679
:100C5000FC752C400D882C434FF6FF552A400D891A
:100C60004FF6FF7606EA05252A434D8806EA052554
:100C70002A43154DA84202D0144DA8421DD14FF26F
:100C8000FF752A404D894FF6FF7606EA05252A436F
:100C90004FF6FF352A408D8806EA05252A434EF691
:100CA000FF752B404DF6FF752B408D8906EA051523
:100CB0002B43CD8906EA05152B4383808483CD8899
:100CC0008587028470BD0000002C01400034014083
:100CD0000A460021818B4FF6F77319401143818337
:100CE0007047818670470187704781877047000091
:100CF000002202881D4B98420ED01D4B98420BD00B
:100D0000B0F1804F08D01B4B984205D01A4B984247
:100D100002D01A4B984204D14FF68F731A404B8879
:100D20001A43174B984207D0164B984204D04FF6FF
:100D3000FF431A40CB881A4302808B8883850B8837
:100D400003850A4B98420BD0094B984208D00E4BB2
:100D5000984205D00D4B984202D00D4B984201D1DC
:100D60000B7A03860123838270470000002C014028
:100D7000003401400004004000080040000C004026
:100D800000100040001400400040014000440140B9
:100D90000048014008B50020009040F225511B4852
:100DA00000F057F858B11949091D0988C8B200F078
:100DB0007DF940F22551154800F030F825E040F269
:100DC0002441124800F045F8F8B1104800880F4857
:100DD000001D008800F082F90D4908700020009085
:100DE0000AE000F04BF90B49BDF800208854BDF82B
:100DF0000000401C80B20090BDF800000449097852
:100E00008842EEDB01200449087008BD003801402B
:100E1000010000202C0000200000002010B500225E
:100E2000002340F66A14A14200D100BF0A12012437
:100E30009440A3B2DC43048010BD21B1828942F406
:100E40000052828104E082894DF6FF731A4082814C
:100E5000704770B50246002400230025002040F6AC
:100E60006A16B14200D100BFC1F3421501F01F0361
:100E7000012606FA03F3012D02D19689334006E0DC
:100E8000022D02D1168A334001E0968A33400C12BB
:100E9000012606FA04F41688344013B10CB101207F
:100EA00000E0002070BDF0B50346002400260025B8
:100EB000002040F66A17B94200D100BF1846C1F3BE
:100EC000421401F01F06012707FA06F5012C01D193
:100ED0000C3004E0022C01D1103000E014301AB1C3
:100EE00007682F43076002E00768AF430760F0BD63
:100EF0002DE9F04786B005460E460024A24600BF05
:100F0000A1460027B08900B100BF2F462C8A4CF6BD
:100F1000FF700440F08804432C82AC894EF6F31035
:100F20000440B08831890843718908430443AC8187
:100F3000AC8A4FF6FF400440B0890443AC8201A85C
:100F4000FFF7BEFB1F48874202D1DDF810A001E089
:100F5000DDF80CA0A88900F4004040B10AEBCA00FB
:100F600000EB0A1031684900B0FBF1F807E00AEB2A
:100F7000CA0000EB0A1031688900B0FBF1F8642068
:100F8000B8FBF0F004012009642101FB1089A88955
:100F900000F4004040B1322000EBC900B0FBF1F09A
:100FA00000F00700044308E0322000EB0910642140
:100FB000B0FBF1F000F00F0004432C8106B0BDE857
:100FC000F08700000038014000BFFEE702E008C8DB
:100FD000121F08C1002AFAD170477047002001E0B3
:100FE00001C1121F002AFBD1704710B500F04AF969
:100FF00000F004F800F08EF910BD000010B50121DA
:101000000D20FFF74DFB01218803FFF749FB01216C
:101010000148FFF7ABF910BD0002300008B5002110
:1010200000916FF07F414FF0E0225161002191610A
:101030000521116114E000214FF0E02291610E4979
:1010400009684FF47A72B1FBF2F1C1F1807100913D
:1010500000BF4FF0E0218969009A9142F9D8401E03
:101060000028E8DC4FF0E021096921F001014FF090
:10107000E022116108BD00000400002000200A49A0
:1010800091F80111084A32F81100114691F8011146
:10109000491C82F80111114691F80111802902DBE7
:1010A000002182F801117047AC0000200A4991F834
:1010B0000011094A22F81100114691F80011491C4B
:1010C00082F80011114691F80011802902DB0021FD
:1010D00082F8001170470000AC0000200D4890F825
:1010E00001010C4991F80011884208DC094890F888
:1010F0000001084991F80111401A80B27047054873
:1011000090F80101C0F18000024991F800110844F3
:1011100080B2F3E7AC00002086B00027B846B9469D
:1011200000240025002656A000680390FFF75DFF0D
:10113000FFF73EFCFFF722FA00BF09E003A9C85DF4
:101140000021FFF730F80520FFF768FF781CC7B2D1
:10115000042FF3DBFFF74AFB4FF4FA60FFF75EFF63
:101160008CE001A8FFF766FA9DF8060000F00A007F
:101170000A2809D103A8FFF70BF84FF00009C84669
:101180001420FFF74BFF79E0B9F1000F0DD103A850
:10119000FFF752F99DF8050000F0080008B14FF084
:1011A00001091420FFF73AFF68E09DF80A000121C9
:1011B000FFF7B2F904469DF809000021FFF7ACF9EA
:1011C00006469DF807000021FFF7A6F905462CB951
:1011D00026B91DB903A8FFF72FF93EE0A11929444C
:1011E00008B2FFF71AF98246A11B491B08B2FFF7A4
:1011F00014F98346A11B294408B2FFF70EF90590A4
:10120000A119491B08B2FFF708F904909DF80C00DA
:1012100052460021FFF723F90520FFF7FFFE9DF856
:101220000D005A460121FFF71AF90520FFF7F6FED7
:101230009DF80E000021059AFFF711F90520FFF730
:10124000EDFE9DF80F000121049AFFF708F9052033
:10125000FFF7E4FE0020FEF7C0FFB8F1000F09D150
:101260009DF8060000F00500052803D1FFF793FA6A
:101270004FF001081420FFF7D1FE00BF71E7000016
:101280000102030408B54FF44070FFF73BF9012059
:101290008DF8030000208DF802008DF80100252054
:1012A0008DF800006846FFF7F5F808BD08B5002185
:1012B0000091C0F308010B4A11800AE0BDF800104C
:1012C000491C89B20091BDF80010B1F5FA5F00DD4C
:1012D00008BD0449091F098801F080010029EDD0EB
:1012E00000BFF5E70438014038B504460D4600203C
:1012F0000090009009E09DF80010605CFFF7D6FFB9
:101300009DF80000401CC0B200909DF80000A8426B
:10131000F1DB38BD00B585B04FF40070ADF81000BA
:1013200003208DF8120018208DF8130004A91E4820
:10133000FEF791FF4FF48060ADF8100048208DF863
:10134000130004A91848FEF786FF4FF4E13000901F
:101350000020ADF80400ADF80600ADF80800ADF8C7
:101360000C000C20ADF80A0069461048FFF7C0FDDC
:101370000E4800880D48001D008840F225510B489A
:10138000FFF74CFD012240F225510848FFF78BFD85
:10139000012240F224410548FFF785FD0121034861
:1013A000FFF74BFD05B000BD0008014000380140CB
:1013B000014200000000000000000000DC130008F3
:1013C000000000202C000000CC0F000808140008CA
:1013D0002C0000208C090000DC0F00080000000039
:1013E00000A24A0400000000000000000102030403
:1013F00006070809000000000102030401020304BB
:081400000607080902040608B2
:0400000508000131BD
:00000001FF
