:020000040800F2
:10000000B8090020490100088F0400081304000803
:10001000310400089D010008E10F00080000000005
:100020000000000000000000000000009107000830
:10003000A10100080000000099060008290A000834
:100040006301000863010008630100086301000800
:1000500063010008630100086301000863010008F0
:1000600063010008630100086301000863010008E0
:1000700063010008630100086301000863010008D0
:1000800063010008630100086301000863010008C0
:1000900063010008630100086301000863010008B0
:1000A00063010008630100086301000863010008A0
:1000B0006301000863010008630100086301000890
:1000C0006301000863010008630100086301000880
:1000D00063010008AD0D000863010008630100081A
:1000E0006301000863010008630100086301000860
:1000F0006301000863010008630100086301000850
:10010000630100086301000863010008630100083F
:10011000630100086301000863010008630100082F
:10012000630100086301000863010008630100081F
:10013000DFF810D000F01AF800480047311100082D
:10014000AFF30080B8090020064880470648004702
:10015000FEE7FEE7FEE7FEE7FEE7FEE7FEE7FEE777
:10016000FEE7FEE72D0A000831010008064C074DA6
:1001700006E0E06840F0010394E807009847103477
:10018000AC42F6D3FFF7D8FFBC140008DC1400081B
:1001900010B50446204600F04DF910BD00BFFEE743
:1001A00070477FB505460C460020009001900290F4
:1001B00003908DF80050FE208DF8010098208DF8F6
:1001C00002008DF803406B208DF80400052168467D
:1001D00001F00AF97FBD1FB5044600200090019090
:1001E000029003908DF80040FF208DF801006620FA
:1001F0008DF802006B208DF803000421684601F0A1
:10020000F3F81FBD2DE9FF4105460F4614461E4673
:10021000DDF82880002000900190029003908DF876
:100220000050F6208DF801008DF8027020128DF834
:100230000300E0B28DF804008DF805608DF80680AB
:100240006B208DF807000821684601F0CDF8BDE865
:10025000FF812DE9F0410246002500260020002301
:100260000024002791F803C00CF00F0591F803C09B
:100270000CF0100CBCF1000F03D091F802C04CEA56
:10028000050591F800C0BCF1000F31D014680020C2
:100290002BE04FF0010C0CFA00F3B1F800C00CEAAF
:1002A00003069E4220D183004FF00F0C0CFA03F797
:1002B000BC4305FA03FC4CEA040491F803C0BCF10A
:1002C000280F06D14FF0010C0CFA00FCC2F814C044
:1002D0000AE091F803C0BCF1480F05D14FF0010CC2
:1002E0000CFA00FCC2F810C0401C0828D1D31460DE
:1002F000B1F800C0BCF1FF0F34DD546800202EE0DF
:1003000000F1080C4FF0010808FA0CF3B1F800C036
:100310000CEA03069E4221D183004FF00F0C0CFA29
:1003200003F7BC4305FA03FC4CEA040491F803C04C
:10033000BCF1280F05D100F1080C08FA0CF8C2F83E
:10034000148091F803C0BCF1480F07D100F1080CEC
:100350004FF0010808FA0CF8C2F81080401C082879
:10036000CED35460BDE8F081F0B50A4600230024E6
:100370000021002500F00046B6F1004F02D11D4ECD
:10038000F16901E01B4E7168C0F3034583B200F4CC
:100390004016B6F5401F08D121F07061154E766801
:1003A00026F07066134F7E6012E000F48016B6F5FA
:1003B000801F06D1032606FA05F4A14341F07061BF
:1003C00006E0460D360103FA06F6B14341F07061CE
:1003D00022B1460D360103FA06F6314300F000461D
:1003E000B6F1004F02D1034EF16101E0014E7160A0
:1003F000F0BD0000000001400246002093680B4061
:100400000BB1012000E0002070474161704701619D
:10041000704700BFFEE70146C82901DDC8207047CC
:1004200011F1C80F02DA6FF0C700F8E70846F6E7E7
:1004300000BFFEE770B50546002408E0285D0121F5
:10044000FFF7AFFE052000F0F5FD601CC4B2042CE0
:10045000F4DB0020FFF7BFFE70BD2DE9F84307462F
:100460000D461446A846002C06DA0DB9012000E01E
:1004700000208046604204B2A6B20120FF2332462B
:10048000414600903846FFF7BDFEBDE8F88370474F
:1004900070B5002100230F22C47804B3154C2468E2
:1004A00004F4E064C4F5E064210AC1F10403CA4025
:1004B000447804FA03F184781440214309010E4C76
:1004C0000678A155047804F01F050124AC40057896
:1004D0006D11AD0005F1E025C5F8004109E0047893
:1004E00004F01F050124AC40044D0678761145F850
:1004F000264070BD0CED00E000E400E080E100E08B
:1005000002490143024A1160704700000000FA05E9
:100510000CED00E010B502460B4613B1C2F18001AC
:1005200001E0A2F1800111F10C0F03DD0C2901DAC9
:10053000002010BDC82048437F2490FBF4F000B297
:10054000F7E7000008B50DE00021009102E00099F6
:10055000491C009106490968064AB1FBF2F1009A6C
:100560009142F4D8011EA0F10100EDD108BD0000B8
:100570000400002000127A0008B50121042000F0D8
:100580008DF81020ADF8000048208DF803000320FE
:100590008DF8020069460E48FFF75BFEE020ADF8DB
:1005A000000010208DF8030003208DF8020069463A
:1005B0000748FFF74EFE20210548FFF728FF80215E
:1005C0000348FFF724FF40210148FFF720FF08BD43
:1005D0000008014070B505460026012421E004EA28
:1005E000050020B120211148FFF711FF03E0202171
:1005F0000E48FFF70AFF80210C48FFF706FF102086
:10060000FFF7A0FF10210948FFF7F6FE00B12643CF
:1006100080210648FFF7FBFE1020FFF793FF6006DE
:10062000040E002CDBDC304670BD000000080140E9
:1006300070B5044640211548FFF7E7FE002507E0A6
:100640001349485DFFF7C6FF12494855681CC5B2FB
:10065000092DF5DB40210D48FFF7D9FE0D48407804
:1006600020700C48C078C04360700A480079C043CD
:10067000A07008484079E0700648807920710548EC
:10068000C07960710348007AA07170BD0008014014
:10069000B0140008AE0100207047000029B1064ADE
:1006A00092690243044B9A6104E0034A92698243CF
:1006B000014B9A61704700000010024030B50021E4
:1006C0000022002400232D4D6D6805F00C0121B19E
:1006D000042905D0082923D105E0294D056022E031
:1006E000274D05601FE0254D6D6805F47012234D00
:1006F0006D6805F48034022505EB92421CB9214D4A
:10070000554305600BE01D4D6D6805F400351DB1C6
:100710001C4D5543056002E0194D5543056002E04C
:10072000174D056000BF00BF144D6D6805F0F00166
:100730000909154D6B5C0568DD4045600F4D6D681E
:1007400005F4E061090A104D6B5C4568DD40856089
:100750000A4D6D6805F46051C90A0B4D6B5C456824
:10076000DD40C560054D6D6805F44041890B074DBE
:100770006B5CC568B5FBF3F5056130BD0010024048
:1007800000127A0000093D00180000202800002017
:100790007047000010B504462146024800F0ADFA4B
:1007A00010BD00000034014010B504462146024847
:1007B00000F0A5FA10BD00000034014010B5044659
:1007C0002146024800F09DFA10BD000000340140AF
:1007D00000B589B001211020FFF760FF0121480317
:1007E000FFF75CFF4FF4E070ADF8200018208DF8A3
:1007F000230003208DF8220008A92348FFF729FDD4
:1008000042F20F70ADF818008F20ADF814000020F0
:10081000ADF81600ADF81A0005A91C4800F074FAEE
:100820006020ADF804000020ADF80C000120ADF808
:10083000060040F2EE20ADF80A0001A9134800F0CE
:100840004DF90021114800F095F901A90F4800F079
:100850009BF900210D4800F0E9F901A90B4800F0CF
:10086000F3F90021094800F03FFA0121074800F0A0
:100870000DF90121054800F021F90121034800F09C
:1008800011F909B000BD0000001001400034014022
:100890002DE9F04704460F4615469846DDE90869FC
:1008A000387818B120883230208002E02088323831
:1008B0002080208840F2E241884201DD002038702B
:1008C0002088FA2801DA012038702088FFF762FFBB
:1008D00098F8000018B128883230288002E0288873
:1008E00032382880288840F2E241884202DD002028
:1008F00088F800002888FA2802DA012088F8000029
:100900002888FFF751FF99F8000018B1308832307D
:10091000308002E0308832383080308840F2E24166
:10092000884202DD002089F800003088FA2802DAC7
:10093000012089F800003088FFF740FFBDE8F0870C
:1009400010B500F001F810BD0CB50020019000902A
:100950003348006840F480303149086000BF3048B7
:10096000006800F4003000900198401C019000984D
:1009700018B90198B0F5A06FF1D12948006800F4CA
:10098000003010B10120009001E00020009000989C
:10099000012843D12348006840F010002149086035
:1009A0000846006820F0030008600846006840F030
:1009B000020008601A4840681949486008464068C3
:1009C00048600846406840F48060486008464068D7
:1009D00020F47C1048600846406840F4E810486005
:1009E0000846006840F08070086000BF0C4800684E
:1009F00000F000700028F9D00948406820F003009A
:100A0000074948600846406840F00200486000BF5F
:100A10000348406800F00C000828F9D10CBD000024
:100A200000100240002002407047000010B513483B
:100A3000006840F00100114908600846406810490C
:100A400008400E494860084600680E4908400B49B6
:100A500008600846006820F4802008600846406866
:100A600020F4FE0048604FF41F008860FFF768FF25
:100A70004FF000600449086010BD00000010024003
:100A80000000FFF8FFFFF6FE08ED00E021B102884C
:100A900042F08002028004E002884FF67F731A4021
:100AA0000280704721B1028842F00102028004E016
:100AB00002884FF6FE731A400280704731B1B0F8D9
:100AC000442042F40042A0F8442005E0B0F844205D
:100AD000C2F30E02A0F844207047000070B5002455
:100AE00000220023058C4FF6FE7635400584028CEB
:100AF0008388048B4FF68F752C40B51E2C400D88D3
:100B00002C43751E2A400D892A434D882A43144DD3
:100B1000A8420BD0134DA84208D0134DA84205D0CF
:100B2000124DA84202D0124DA84213D14FF6F775CC
:100B30002A404D892A434FF6FB752A408D882A4367
:100B40004FF6FF652B404FF6FF552B408D892B4309
:100B5000CD892B4383800483CD888586028470BD34
:100B6000002C01400034014000400140004401409D
:100B7000004801400A460021018B4FF6F7731940E7
:100B8000114301837047000070B500240022002348
:100B9000058C4FF6EF7635400584028C8388048BF4
:100BA00048F6FF752C404FF6FF452C400D884FF658
:100BB000FF7606EA05252C434FF6DF752A400D899E
:100BC00006EA05152A434D8806EA05152A43154D00
:100BD000A84202D0144DA8421DD14FF67F752A407D
:100BE0004D894FF6FF7606EA05152A434FF6BF7585
:100BF0002A408D8806EA05152A434FF6FF352B401B
:100C00004FF2FF752B408D8906EA85052B43CD8970
:100C100006EA85052B4383800483CD8805870284FB
:100C200070BD0000002C0140003401400A46002144
:100C3000018B4FF2FF7319404FF6FF7303EA022353
:100C4000194301837047000070B50024002200237F
:100C5000058C4FF6FF6635400584028C8388848BB3
:100C60004FF68F752C404FF6FC752C400D882C43A9
:100C70004FF6FF552A400D894FF6FF7606EA052507
:100C80002A434D8806EA05252A43154DA84202D07D
:100C9000144DA8421DD14FF2FF752A404D894FF6E1
:100CA000FF7606EA05252A434FF6FF352A408D8850
:100CB00006EA05252A434EF6FF752B404DF6FF75D3
:100CC0002B408D8906EA05152B43CD8906EA0515CB
:100CD0002B4383808483CD888587028470BD000088
:100CE000002C0140003401400A460021818B4FF660
:100CF000F7731940114381837047818670470187DC
:100D00007047818770470000002202881D4B98427F
:100D10000ED01D4B98420BD0B0F1804F08D01B4B2A
:100D2000984205D01A4B984202D01A4B984204D1EF
:100D30004FF68F731A404B881A43174B984207D0CF
:100D4000164B984204D04FF6FF431A40CB881A4303
:100D500002808B8883850B8803850A4B98420BD0D1
:100D6000094B984208D00E4B984205D00D4B984243
:100D700002D00D4B984201D10B7A03860123838266
:100D800070470000002C0140003401400004004086
:100D900000080040000C004000100040001400401B
:100DA00000400140004401400048014008B50020D7
:100DB000009040F225511B4800F057F858B11949EE
:100DC000091D0988C8B200F07DF940F22551154887
:100DD00000F030F825E040F22441124800F045F8D8
:100DE000F8B1104800880F48001D008800F082F913
:100DF0000D490870002000900AE000F04BF90B4903
:100E0000BDF800208854BDF80000401C80B200905E
:100E1000BDF80000044909788842EEDB012004494E
:100E2000087008BD00380140010000202C0000209F
:100E30000000002010B50022002340F66A14A142F1
:100E400000D100BF0A1201249440A3B2DC43048005
:100E500010BD21B1828942F40052828104E082896E
:100E60004DF6FF731A408281704770B50246002428
:100E700000230025002040F66A16B14200D100BFD1
:100E8000C1F3421501F01F03012606FA03F3012DF9
:100E900002D19689334006E0022D02D1168A3340F2
:100EA00001E0968A33400C12012606FA04F41688F3
:100EB000344013B10CB1012000E0002070BDF0B54A
:100EC0000346002400260025002040F66A17B94298
:100ED00000D100BF1846C1F3421401F01F060127DC
:100EE00007FA06F5012C01D10C3004E0022C01D1E7
:100EF000103000E014301AB107682F43076002E099
:100F00000768AF430760F0BD2DE9F04786B005469E
:100F10000E460024A24600BFA1460027B08900B1BA
:100F200000BF2F462C8A4CF6FF700440F088044323
:100F30002C82AC894EF6F3100440B0883189084306
:100F4000718908430443AC81AC8A4FF6FF400440EA
:100F5000B0890443AC8201A8FFF7B0FB1F48874269
:100F600002D1DDF810A001E0DDF80CA0A88900F4A2
:100F7000004040B10AEBCA0000EB0A10316849009A
:100F8000B0FBF1F807E00AEBCA0000EB0A10316889
:100F90008900B0FBF1F86420B8FBF0F004012009EF
:100FA000642101FB1089A88900F4004040B132207F
:100FB00000EBC900B0FBF1F000F00700044308E0CB
:100FC000322000EB09106421B0FBF1F000F00F00BB
:100FD00004432C8106B0BDE8F087000000380140D2
:100FE00000BFFEE702E008C8121F08C1002AFAD1BC
:100FF00070477047002001E001C1121F002AFBD199
:10100000704710B500F0BEF900F004F800F002FAE5
:1010100010BD000010B501210D20FFF73FFB01219D
:101020008803FFF73BFB01210148FFF79DF910BD45
:101030000002300008B5002100916FF07F414FF0B1
:10104000E0225161002191610521116114E000212C
:101050004FF0E02291610E4909684FF47A72B1FBBA
:10106000F2F1C1F18071009100BF4FF0E021896978
:10107000009A9142F9D8401E0028E8DC4FF0E021A8
:10108000096921F001014FF0E022116108BD000063
:101090000400002000200A4991F80111084A32F8A2
:1010A0001100114691F80111491C82F801111146F5
:1010B00091F80111802902DB002182F801117047AB
:1010C000AC0000200A4991F80011094A22F81100E9
:1010D000114691F80011491C82F80011114691F84F
:1010E0000011802902DB002182F800117047000006
:1010F000AC0000200D4890F801010C4991F8001156
:10110000884208DC094890F80001084991F801116B
:10111000401A80B27047054890F80101C0F1800084
:10112000024991F80011084480B2F3E7AC000020B6
:1011300090B00027B846BA4600240025002690A0AB
:1011400000680B90A146A34640F2EE20089007905D
:101150000690012005900020049001200390FFF7E5
:1011600050FFFFF735FBFFF707FA00BF09E00BA9B7
:10117000C85D0021FFF715F80520FFF75BFF781C1D
:10118000C7B2042FF3DB4FF4FA60FFF753FFF5E02B
:1011900009A8FFF74DFA9DF82400732809D00BA881
:1011A000FEF7F6FF4FF0000AD3461420FFF742FF88
:1011B000E4E09DF8260000F00A000A280AD10BA8F6
:1011C000FEF7E6FF4FF0000AD046C3461420FFF7B3
:1011D00031FFD3E0BAF1000F0FD10BA8FFF72AF9C6
:1011E0009DF8250000F0080008B14FF0010A4FF00B
:1011F000000B1420FFF71EFFC0E09DF82A0001211C
:10120000FFF788F904469DF829000021FFF782F9CD
:1012100006469DF827000021FFF77CF90546002CC3
:1012200048D1002E46D1002D44D1BBF1000F36D15C
:101230004FF0010B8146012000909DF82C00FF2308
:1012400000221146FEF7DEFF0520FFF7F3FE012026
:1012500000909DF82D00FF2300221146FEF7D2FFDB
:101260000520FFF7E7FE012000909DF82E00FF23E8
:1012700000221146FEF7C6FF0520FFF7DBFE012026
:1012800000909DF82F00FF2300221146FEF7BAFFC1
:101290000520FFF7CFFE0020FEF79DFF03E009F1D8
:1012A00014001FFA80F9B9F5FA7F45DB0BA8FFF7A8
:1012B000C1F841E04FF0000BD946A119294408B20A
:1012C000FFF7A9F80F90A11B491B08B2FFF7A3F87D
:1012D0000E90A11B294408B2FFF79DF80D90A119AB
:1012E000491B08B2FFF797F80C909DF82C000021DD
:1012F0000F9AFFF7B2F80520FFF79CFE9DF82D002E
:1013000001210E9AFFF7A9F80520FFF793FE9DF83B
:101310002E0000210D9AFFF7A0F80520FFF78AFEA6
:101320009DF82F0001210C9AFFF797F80520FFF791
:1013300081FE0020FEF74FFF9DF8260000F005001B
:10134000052812D1B8F1000F01D14FF00108322069
:10135000FFF770FE03A806A904AB07AACDE90010A9
:1013600005A908A8FFF794FA04E0B8F1010F01D12C
:101370004FF000081420FFF75DFE00BF08E70000F3
:101380000102030408B54FF44070FFF7B9F80120DB
:101390008DF8030000208DF802008DF80100252053
:1013A0008DF800006846FFF773F808BD08B5002106
:1013B0000091C0F308010B4A11800AE0BDF800104B
:1013C000491C89B20091BDF80010B1F5FA5F00DD4B
:1013D00008BD0449091F098801F080010029EDD0EA
:1013E00000BFF5E70438014038B504460D4600203B
:1013F0000090009009E09DF80010605CFFF7D6FFB8
:101400009DF80000401CC0B200909DF80000A8426A
:10141000F1DB38BD00B585B04FF40070ADF81000B9
:1014200003208DF8120018208DF8130004A91E481F
:10143000FEF70FFF4FF48060ADF8100048208DF8E4
:10144000130004A91848FEF704FF4FF4E1300090A0
:101450000020ADF80400ADF80600ADF80800ADF8C6
:101460000C000C20ADF80A0069461048FFF74CFD4F
:101470000E4800880D48001D008840F225510B4899
:10148000FFF7D8FC012240F225510848FFF717FD6D
:10149000012240F224410548FFF711FD01210348D4
:1014A000FFF7D7FC05B000BD00080140003801403F
:1014B000014200000000000000000000DC140008F1
:1014C000000000202C000000E40F000808150008B0
:1014D0002C0000208C090000F40F00080000000020
:1014E00000A24A0400000000000000000102030402
:1014F00006070809000000000102030401020304BA
:081500000607080902040608B1
:0400000508000131BD
:00000001FF
