:020000040800F2
:10000000C809002049010008170600084B05000830
:1000100069050008C101000819130008000000006C
:10002000000000000000000000000000650B000858
:10003000C5010008000000006D0A0008610D0008FD
:100040006301000863010008630100086301000800
:1000500063010008630100086301000863010008F0
:1000600063010008630100086301000863010008E0
:1000700063010008630100086301000863010008D0
:1000800063010008630100086301000863010008C0
:1000900063010008630100086301000863010008B0
:1000A00063010008630100086301000863010008A0
:1000B0006301000863010008630100086301000890
:1000C0006301000863010008630100086301000880
:1000D00063010008E51000086301000863010008DF
:1000E0006301000863010008630100086301000860
:1000F0006301000863010008630100086301000850
:10010000630100086301000863010008630100083F
:10011000630100086301000863010008630100082F
:10012000630100086301000863010008630100081F
:10013000DFF810D000F02CF80048004769140008E0
:10014000AFF30080C80900200648804706480047F2
:10015000FEE7FEE7FEE7FEE7FEE7FEE7FEE7FEE777
:10016000FEE7FEE7650D000831010008D2B201E0AC
:1001700000F8012B491EFBD270470022F6E710B5AC
:1001800013460A4604461946FFF7F0FF204610BD05
:10019000064C074D06E0E06840F0010394E80700D4
:1001A00098471034AC42F6D3FFF7C6FF301D000865
:1001B000501D000810B50446204600F0D7F910BDC8
:1001C00000BFFEE770472DE9F04F89B005460E46A7
:1001D0001746984613AC94E8100E202101A8FFF7AB
:1001E000CCFF8DF804504C208DF80500AE208DF822
:1001F00006008DF807608DF808708DF80980129858
:1002000000128DF80A001298C0B28DF80B00200E73
:100210008DF80C00200C8DF80D00200A8DF80E00D2
:10022000E0B28DF80F004FEA29208DF8100009F098
:10023000FF008DF811004FEA2A208DF812000AF015
:10024000FF008DF813004FEA2B208DF814000BF0FF
:10025000FF008DF8150017988DF816006B208DF8AB
:100260001700142101A801F0E5FA09B0BDE8F08FEC
:100270002DE9FF4706460F4615469846DDE90D9ADB
:100280000C9C002000900190029003908DF800607B
:10029000FD208DF801008DF8027028128DF8030002
:1002A000E8B28DF804008DF80580200E8DF8060068
:1002B000200C8DF80700200A8DF80800E0B28DF8B8
:1002C00009008DF80A908DF80BA06B208DF80C00BA
:1002D0000D21684601F0AEFABDE8FF877FB50546FF
:1002E0000C46002000900190029003908DF8005081
:1002F000FE208DF8010098208DF802008DF8034053
:100300006B208DF804000521684601F093FA7FBD4B
:100310001FB5002000900190029003908DF800001E
:10032000FF208DF8010066208DF802006B208DF80B
:1003300003000421684601F07DFA1FBD2DE9FF414D
:1003400005460F4614461E46DDF828800020009022
:100350000190029003908DF80050F6208DF8010076
:100360008DF8027020128DF80300E0B28DF80400C1
:100370008DF805608DF806806B208DF80700082148
:10038000684601F057FABDE8FF812DE9F0410246C9
:1003900000250026002000230024002791F803C038
:1003A0000CF00F0591F803C00CF0100CBCF1000F1D
:1003B00003D091F802C04CEA050591F800C0BCF1E9
:1003C000000F31D0146800202BE04FF0010C0CFA24
:1003D00000F3B1F800C00CEA03069E4220D183006E
:1003E0004FF00F0C0CFA03F7BC4305FA03FC4CEA80
:1003F000040491F803C0BCF1280F06D14FF0010CA2
:100400000CFA00FCC2F814C00AE091F803C0BCF179
:10041000480F05D14FF0010C0CFA00FCC2F810C0D7
:10042000401C0828D1D31460B1F800C0BCF1FF0F04
:1004300034DD546800202EE000F1080C4FF0010874
:1004400008FA0CF3B1F800C00CEA03069E4221D171
:1004500083004FF00F0C0CFA03F7BC4305FA03FCC2
:100460004CEA040491F803C0BCF1280F05D100F157
:10047000080C08FA0CF8C2F8148091F803C0BCF11B
:10048000480F07D100F1080C4FF0010808FA0CF8EA
:10049000C2F81080401C0828CED35460BDE8F0811B
:1004A000F0B50A46002300240021002500F0004694
:1004B000B6F1004F02D11D4EF16901E01B4E71688B
:1004C000C0F3034583B200F44016B6F5401F08D1CF
:1004D00021F07061154E766826F07066134F7E60CD
:1004E00012E000F48016B6F5801F06D1032606FA46
:1004F00005F4A14341F0706106E0460D360103FAB0
:1005000006F6B14341F0706122B1460D360103FA9F
:1005100006F6314300F00046B6F1004F02D1034E1B
:10052000F16101E0014E7160F0BD0000000001408A
:100530000246002093680B400BB1012000E0002030
:100540007047416170470161704700BFFEE7014697
:10055000C82901DDC820704711F1C80F02DA6FF019
:10056000C700F8E70846F6E700BFFEE770B50546A6
:10057000002405E0285D0121FFF7B0FE601CC4B235
:10058000042CF7DBFFF7C4FE70BD2DE9F8430746E6
:100590000D461446A846002C06DA0DB9012000E0ED
:1005A00000208046604204B2A6B20120C823324631
:1005B000414600903846FFF7C1FEBDE8F8832DE9BB
:1005C000F04104460D4617461E46DDF81880207897
:1005D0002A460021FFF7D9FF052000F0C7FE60780A
:1005E0003A460121FFF7D1FF052000F0BFFEA078B9
:1005F00032460021FFF7C9FF052000F0B7FEE07882
:1006000042460121FFF7C1FF052000F0AFFEFFF7D2
:100610007FFEBDE8F081704770B5002100230F22F6
:10062000C47804B3154C246804F4E064C4F5E064B1
:10063000210AC1F10403CA40447804FA03F1847822
:100640001440214309010E4C0678A155047804F0AA
:100650001F050124AC4005786D11AD0005F1E025C2
:10066000C5F8004109E0047804F01F050124AC40FE
:10067000044D0678761145F8264070BD0CED00E07B
:1006800000E400E080E100E002490143024A116019
:10069000704700000000FA050CED00E030B503469D
:1006A0000C4614B1C3F1800101E0A3F1800111F106
:1006B0000C0F03DD0C2901DA002030BD01FB02F034
:1006C0007F2590FBF5F000B2F7E7000008B50DE0DC
:1006D0000021009102E00099491C00910649096837
:1006E000064AB1FBF2F1009A9142F4D8011EA0F142
:1006F0000100EDD108BD00000400002000127A00C6
:1007000008B50121042000F0B3F91020ADF8000075
:1007100048208DF8030003208DF8020069460E483A
:10072000FFF733FEE020ADF8000010208DF8030045
:1007300003208DF8020069460748FFF726FE2021B6
:100740000548FFF700FF80210348FFF7FCFE40212A
:100750000148FFF7F8FE08BD0008014070B50546E6
:100760000026012421E004EA050020B120211148DF
:10077000FFF7E9FE03E020210E48FFF7E2FE8021AB
:100780000C48FFF7DEFE1020FFF7A0FF10210948FC
:10079000FFF7CEFE00B1264380210648FFF7D3FEC7
:1007A0001020FFF793FF6006040E002CDBDC3046C0
:1007B00070BD00000008014070B504464021154896
:1007C000FFF7BFFE002507E01349485DFFF7C6FFAE
:1007D00012494855681CC5B2092DF5DB40210D486A
:1007E000FFF7B1FE0D48407820700C48C078C04338
:1007F00060700A480079C043A07008484079E070F2
:100800000648807920710548C07960710348007AF4
:10081000A07170BD00080140FC180008BA0100205A
:100820002DE9FE4304466688A788E5884FF6FF70E9
:10083000854227D03248407802280FD13048C0780E
:1008400010B1012806D102E040F2472505E040F250
:10085000953502E040F2E24500BF13E028484078B9
:1008600005280FD12648C07810B1012806D102E032
:1008700040F2E24505E040F2953502E040F24725BE
:1008800000BF00BF4FF6FF70864202D0304600F036
:100890006BF94FF6FF70874202D0384600F06EF9D0
:1008A0004FF6FE70854201D1164805884FF6FF705D
:1008B000854202D0284600F0CBF92078012802D0EA
:1008C0002078022816D1D4F80880052000F04EFDCB
:1008D00000200121C8234FF49672CDE900810290D7
:1008E0000520FFF7C5FC052000F040FD012004496C
:1008F000C87102E000200249C871BDE8FE83000013
:100900001800002020000020002004490870887191
:1009100048708870C8708880C871704718000020BF
:100920000A49897901B17047072800D3FBE70749D5
:1009300048700021054A9170D1709180D1710121D8
:1009400091710021117000BFEDE700001800002038
:10095000002003498871087088808870C8707047CB
:100960001800002070B53F48807900B970BD3D483F
:1009700040783D4901EBC0053A498978286800EB89
:1009800001143848007820B1012843D0022865D1ED
:1009900052E02078042808D13248C078401C314900
:1009A000C870002088710870E0E72046FFF738FF24
:1009B000207803280ED1A089002805DDA0892949C7
:1009C00088800220087024E026488078401C254951
:1009D00088701EE02348C07968B1A089002803DD33
:1009E000A0892049888002E07D201E49888001205E
:1009F0001C4908700DE0A089002805DDA08919496F
:100A000088800220087004E016488078401C154950
:100A1000887023E013488088002805DD114880880D
:100A2000401E1049888006E00E488078401C0D4921
:100A300088700020087011E00A488088002805DDD1
:100A400008488088401E0749888006E0054880786D
:100A5000401C044988700020087000BF00BF00BF20
:100A600084E7000018000020F81C00087047000010
:100A700029B1064A92690243044B9A6104E0034A91
:100A800092698243014B9A61704700000010024056
:100A900030B500210022002400232D4D6D6805F0A3
:100AA0000C0121B1042905D0082923D105E0294DE5
:100AB000056022E0274D05601FE0254D6D6805F4B7
:100AC0007012234D6D6805F48034022505EB9242C7
:100AD0001CB9214D554305600BE01D4D6D6805F4B3
:100AE00000351DB11C4D5543056002E0194D5543BD
:100AF000056002E0174D056000BF00BF144D6D6832
:100B000005F0F0010909154D6B5C0568DD40456095
:100B10000F4D6D6805F4E061090A104D6B5C456886
:100B2000DD4085600A4D6D6805F46051C90A0B4DC2
:100B30006B5C4568DD40C560054D6D6805F440415E
:100B4000890B074D6B5CC568B5FBF3F5056130BDDE
:100B50000010024000127A0000093D00220000202F
:100B6000320000207047000010B5044621460248BC
:100B700000F05FFA10BD00000034014010B50446DB
:100B80002146024800F057FA10BD00000034014031
:100B900000B589B001211020FFF76AFF0121480349
:100BA000FFF766FF4FF4E070ADF8200018208DF8D5
:100BB000230003208DF8220008A92348FFF7E5FB56
:100BC00042F20F70ADF818008F20ADF8140000202D
:100BD000ADF81600ADF81A0005A91C4800F030FA6F
:100BE0006020ADF804000020ADF80C000120ADF845
:100BF000060040F2EE20ADF80A0001A9134800F00B
:100C000009F90021114800F051F901A90F4800F03D
:100C100057F900210D4800F0A5F901A90B4800F093
:100C2000AFF90021094800F0FBF90121074800F065
:100C3000C9F80121054800F0DDF80121034800F062
:100C4000CDF809B000BD00000010014000340140A3
:100C500010B504462146024800F0EFF910BD00002F
:100C60000034014010B500F001F810BD0CB50020B3
:100C7000019000903348006840F4803031490860AA
:100C800000BF3048006800F4003000900198401C1C
:100C90000190009818B90198B0F5A06FF1D12948DA
:100CA000006800F4003010B10120009001E0002045
:100CB00000900098012843D12348006840F01000BC
:100CC000214908600846006820F0030008600846D3
:100CD000006840F0020008601A48406819494860FE
:100CE0000846406848600846406840F480604860B4
:100CF0000846406820F47C1048600846406840F48C
:100D0000E81048600846006840F08070086000BF46
:100D10000C48006800F000700028F9D009484068CD
:100D200020F00300074948600846406840F0020090
:100D3000486000BF0348406800F00C000828F9D163
:100D40000CBD0000001002400020024010B5044617
:100D5000024804800088FFF77BFF10BD20000020C0
:100D60007047000010B51348006840F001001149B9
:100D7000086008464068104908400E494860084627
:100D800000680E4908400B4908600846006820F4D6
:100D9000802008600846406820F4FE0048604FF458
:100DA0001F008860FFF75EFF4FF000600449086095
:100DB00010BD0000001002400000FFF8FFFFF6FE2B
:100DC00008ED00E021B1028842F08002028004E0D8
:100DD00002884FF67F731A400280704721B1028863
:100DE00042F00102028004E002884FF6FE731A40CE
:100DF0000280704731B1B0F8442042F40042A0F8BC
:100E0000442005E0B0F84420C2F30E02A0F84420CC
:100E10007047000070B5002400220023058C4FF6B7
:100E2000FE7635400584028C8388048B4FF68F75DF
:100E30002C40B51E2C400D882C43751E2A400D8970
:100E40002A434D882A43144DA8420BD0134DA84283
:100E500008D0134DA84205D0124DA84202D0124D21
:100E6000A84213D14FF6F7752A404D892A434FF611
:100E7000FB752A408D882A434FF6FF652B404FF6BD
:100E8000FF552B408D892B43CD892B4383800483D1
:100E9000CD888586028470BD002C0140003401405D
:100EA0000040014000440140004801400A46002142
:100EB000018B4FF6F773194011430183704700000F
:100EC00070B5002400220023058C4FF6EF763540E4
:100ED0000584028C8388048B48F6FF752C404FF6FE
:100EE000FF452C400D884FF6FF7606EA05252C437A
:100EF0004FF6DF752A400D8906EA05152A434D880D
:100F000006EA05152A43154DA84202D0144DA84201
:100F10001DD14FF67F752A404D894FF6FF7606EAC0
:100F200005152A434FF6BF752A408D8806EA051538
:100F30002A434FF6FF352B404FF2FF752B408D892A
:100F400006EA85052B43CD8906EA85052B43838078
:100F50000483CD880587028470BD0000002C014009
:100F6000003401400A460021018B4FF2FF73194003
:100F70004FF6FF7303EA0223194301837047000011
:100F800070B5002400220023058C4FF6FF66354023
:100F90000584028C8388848B4FF68F752C404FF626
:100FA000FC752C400D882C434FF6FF552A400D89C7
:100FB0004FF6FF7606EA05252A434D8806EA052501
:100FC0002A43154DA84202D0144DA8421DD14FF21C
:100FD000FF752A404D894FF6FF7606EA05252A431C
:100FE0004FF6FF352A408D8806EA05252A434EF63E
:100FF000FF752B404DF6FF752B408D8906EA0515D0
:101000002B43CD8906EA05152B4383808483CD8845
:101010008587028470BD0000002C0140003401402F
:101020000A460021818B4FF6F773194011438183E3
:10103000704781867047018770478187704700003D
:10104000002202881D4B98420ED01D4B98420BD0B7
:10105000B0F1804F08D01B4B984205D01A4B9842F4
:1010600002D01A4B984204D14FF68F731A404B8826
:101070001A43174B984207D0164B984204D04FF6AC
:10108000FF431A40CB881A4302808B8883850B88E4
:1010900003850A4B98420BD0094B984208D00E4B5F
:1010A000984205D00D4B984202D00D4B984201D189
:1010B0000B7A03860123838270470000002C0140D5
:1010C000003401400004004000080040000C0040D3
:1010D0000010004000140040004001400044014066
:1010E0000048014008B50020009040F225511B48FF
:1010F00000F057F858B11949091D0988C8B200F025
:101100007DF940F22551154800F030F825E040F215
:101110002441124800F045F8F8B1104800880F4803
:10112000001D008800F082F90D4908700020009031
:101130000AE000F04BF90B49BDF800208854BDF8D7
:101140000000401C80B20090BDF8000004490978FE
:101150008842EEDB01200449087008BD00380140D8
:1011600001000020380000200000002010B50022FF
:10117000002340F66A14A14200D100BF0A120124E4
:101180009440A3B2DC43048010BD21B1828942F4B3
:101190000052828104E082894DF6FF731A408281F9
:1011A000704770B50246002400230025002040F659
:1011B0006A16B14200D100BFC1F3421501F01F030E
:1011C000012606FA03F3012D02D19689334006E089
:1011D000022D02D1168A334001E0968A33400C1268
:1011E000012606FA04F41688344013B10CB101202C
:1011F00000E0002070BDF0B5034600240026002565
:10120000002040F66A17B94200D100BF1846C1F36A
:10121000421401F01F06012707FA06F5012C01D13F
:101220000C3004E0022C01D1103000E014301AB16F
:1012300007682F43076002E00768AF430760F0BD0F
:101240002DE9F04786B005460E460024A24600BFB1
:10125000A1460027B08900B100BF2F462C8A4CF66A
:10126000FF700440F08804432C82AC894EF6F310E2
:101270000440B08831890843718908430443AC8134
:10128000AC8A4FF6FF400440B0890443AC8201A809
:10129000FFF7FEFB1F48874202D1DDF810A001E0F6
:1012A000DDF80CA0A88900F4004040B10AEBCA00A8
:1012B00000EB0A1031684900B0FBF1F807E00AEBD7
:1012C000CA0000EB0A1031688900B0FBF1F8642015
:1012D000B8FBF0F004012009642101FB1089A88902
:1012E00000F4004040B1322000EBC900B0FBF1F047
:1012F00000F00700044308E0322000EB09106421ED
:10130000B0FBF1F000F00F0004432C8106B0BDE803
:10131000F08700000038014000BFFEE702E008C887
:10132000121F08C1002AFAD170477047002001E05F
:1013300001C1121F002AFBD1704710B500F048FA16
:1013400000F004F800F08CFA10BD000010B5012187
:101350000D20FFF78DFB01218803FFF789FB012199
:101360000148FFF79DF810BD0002300008B50021CC
:1013700000916FF07F414FF0E022516100219161B7
:101380000521116114E000214FF0E02291610E4926
:1013900009684FF47A72B1FBF2F1C1F180710091EA
:1013A00000BF4FF0E0218969009A9142F9D8401EB0
:1013B0000028E8DC4FF0E021096921F001014FF03D
:1013C000E022116108BD00000400002000200A494D
:1013D00091F80111084A32F81100114691F80111F3
:1013E000491C82F80111114691F80111802902DB94
:1013F000002182F801117047B80000200A4991F8D5
:101400000011094A22F81100114691F80011491CF7
:1014100082F80011114691F80011802902DB0021A9
:1014200082F8001170470000B80000200D4890F8C5
:1014300001010C4991F80011884208DC094890F834
:101440000001084991F80111401A80B2704705481F
:1014500090F80101C0F18000024991F800110844A0
:1014600080B2F3E7B800002090B04FF000090020F0
:101470000F90002500260027D4A000680B90AB46F3
:1014800000200890079080460024FFF756FFFFF7E2
:101490007FFB40F24720FFF767FBFA20FFF76EFB68
:1014A000FA20FFF7D5FBFFF72BF9FFF72DFA00BF66
:1014B0000CE00BA911F809000021FEF70FFF052031
:1014C000FFF754FF09F1010000F0FF09B9F1040F23
:1014D000EFDB4FF4FA60FFF749FF00210520FEF72C
:1014E000FDFE0520FFF742FF01204FF4FA71322381
:1014F000CDE90231CDE9041041F28830C821002342
:101500000222CDE9001001210520FEF75CFE6420D7
:10151000FFF72CFF41F28830FFF728FF0020012160
:1015200042F6A002C823CDE9002102904FF4967242
:101530000520FEF79DFE40F6C410FFF717FF44E1BB
:1015400009A8FFF739F99DF8240073280BD00BA8E0
:10155000FEF730FEFFF7FCF900200F9008901420F2
:10156000FFF704FF31E19DF8260000F00A000A2889
:101570000BD10BA8FEF71EFEFFF7EAF900200F9033
:1015800008901420FFF7F2FE1FE10F98E0B90BA8B6
:10159000FEF7ECFF9DF8250000F0080070B1FA207E
:1015A000FFF7ECFAFA20FFF753FBFA20FFF7DCFA1B
:1015B0004FF4FA70FFF7DAFE01200F900020089038
:1015C0001420FFF7D3FE00E19DF82A00C822012174
:1015D000FFF764F805469DF82900C8220021FFF7AF
:1015E0005DF807469DF8270064220021FFF756F8B2
:1015F000064615BB0FBB06BB0798002841D10898CB
:1016000060B9012008904FF0000B0020034602460D
:10161000014600900BA8FEF7D2FF32E00BF1140058
:101620001FFA80FBBBF5FA7F2BDB0BA8FEF79EFFB2
:10163000002008900120079023E0002008908346B6
:101640000790E919314408B2FEF781FF0E90E91BBB
:10165000891B08B2FEF77BFF0D90E91B314408B2ED
:10166000FEF775FF0C90E919891B08B2FEF76FFFB2
:101670008246CDF800A00BA8DDE90C320E99FEF7EA
:101680009EFF9DF8260000F00400A0B39DF8260000
:1016900000F0010078BB9DF8260000F0100030B18A
:1016A00004F0100018B90020FFF73AF951E09DF856
:1016B000260000F0800030B104F0800018B901204D
:1016C000FFF72EF945E09DF8260000F0400030B10C
:1016D00004F0400018B90220FFF722F939E09DF824
:1016E000260000F0200040B304F0200028BB0620B4
:1016F000FFF716F92DE0FFE79DF8260000F0010046
:10170000D8B19DF8260000F00400B0B99DF826007D
:1017100000F0100030B104F0100018B90320FFF7FA
:10172000FFF816E09DF8260000F0800030B104F0CC
:10173000800018B90420FFF7F3F80AE09DF82600AE
:1017400000F0400028B104F0400010B90520FFF778
:10175000E7F89DF8250000F0400030B108F04000A7
:1017600018B9FA20FFF7F2FA25E09DF8250000F0FD
:10177000800038B108F0800020B940F24720FFF720
:10178000E5FA18E09DF8250000F0100038B108F0E7
:10179000100020B940F29530FFF7D8FA0BE09DF821
:1017A000250000F0200030B108F0200018B940F208
:1017B000E240FFF7CBFAFFF7D5F89DF825809DF8BA
:1017C00026401420FFF7D2FD00BFB9E60102030452
:1017D00008B54FF44070FEF757FF01208DF8030065
:1017E00000208DF802008DF8010025208DF8000002
:1017F0006846FEF711FF08BD08B500210091C0F34F
:1018000008010B4A11800AE0BDF80010491C89B29A
:101810000091BDF80010B1F5FA5F00DD08BD044984
:10182000091F098801F080010029EDD000BFF5E70C
:101830000438014038B504460D4600200090009061
:1018400009E09DF80010605CFFF7D6FF9DF80000EE
:10185000401CC0B200909DF80000A842F1DB38BDEA
:1018600000B585B04FF40070ADF8100003208DF87E
:10187000120018208DF8130004A91E48FEF785FDFC
:101880004FF48060ADF8100048208DF8130004A9D3
:101890001848FEF77AFD4FF4E13000900020ADF8D3
:1018A0000400ADF80600ADF80800ADF80C000C20FF
:1018B000ADF80A0069461048FFF7C2FC0E480088E0
:1018C0000D48001D008840F225510B48FFF74EFCE3
:1018D000012240F225510848FFF78DFC012240F219
:1018E00024410548FFF787FC01210348FFF74DFC21
:1018F00005B000BD00080140003801400142000071
:1019000000000000000000000100FFFFFFFFFFFFDC
:10191000200D00003C00000000004702FFFFFFFF19
:10192000000000000F0000000100FFFFFFFFFFFFAD
:10193000A02800003C0000000000FFFF7304FFFF30
:10194000000000002D0000000100FFFFFFFFFFFF6F
:10195000401F0000280000000000FA00FFFFFFFF0A
:10196000000000000F0000000100FFFFFFFFFFFF6D
:10197000A02800003C0000000000FFFFFA00FFFF6D
:10198000000000001900000004000000000000003A
:1019900000000000000000000100FFFFFFFFFFFF4C
:1019A000200D00003C00000000004702FFFFFFFF89
:1019B000000000000F0000000100FFFFFFFFFFFF1D
:1019C000A02800003C0000000000FFFF9503FEFF80
:1019D00000000000190000000100FFFFFFFFFFFFF3
:1019E000401F0000280000000000FA00FFFFFFFF7A
:1019F000000000000F0000000100FFFFFFFFFFFFDD
:101A0000A02800003C0000000000FFFFFA00FFFFDC
:101A100000000000190000000400000000000000A9
:101A200000000000000000000100FFFFFFFFFFFFBB
:101A3000200D00003C00000000004702FFFFFFFFF8
:101A4000000000000F0000000100FFFFFFFFFFFF8C
:101A5000A02800003C0000000000FFFFB602FFFFCE
:101A600000000000190000000100FFFFFFFFFFFF62
:101A7000401F0000280000000000FA00FFFFFFFFE9
:101A8000000000000F0000000100FFFFFFFFFFFF4C
:101A9000A02800003C0000000000FFFFFA00FFFF4C
:101AA0000000000019000000040000000000000019
:101AB00000000000000000000000FFFFB602FFFF72
:101AC00000000000190000000100FFFFFFFFFFFF02
:101AD000001900002800000000004702FFFFFFFF80
:101AE000000000000F0000000100FFFFFFFFFFFFEC
:101AF000A02800003C0000000000FFFFFA00FFFFEC
:101B000000000000190000000100FFFFFFFFFFFFC1
:101B1000A0000000460000000000FA00FFFFFFFFE9
:101B2000000000000F0000000100FFFFFFFFFFFFAB
:101B3000A028000046000000040000000000000093
:101B400000000000000000000000FFFF9503FFFF01
:101B500000000000140000000100FFFFFFFFFFFF76
:101B6000001900002800000000004702FFFFFFFFEF
:101B7000000000000F0000000100FFFFFFFFFFFF5B
:101B8000A02800003C0000000000FFFFFA00FFFF5B
:101B900000000000190000000100FFFFFFFFFFFF31
:101BA000A0000000460000000000FA00FFFFFFFF59
:101BB000000000000F0000000100FFFFFFFFFFFF1B
:101BC000A028000046000000040000000000000003
:101BD00000000000000000000000FFFF7304FFFF92
:101BE000000000002D0000000100FFFFFFFFFFFFCD
:101BF000001900002800000000004702FFFFFFFF5F
:101C0000000000000F0000000100FFFFFFFFFFFFCA
:101C1000A02800003C0000000000FFFFFA00FFFFCA
:101C200000000000190000000100FFFFFFFFFFFFA0
:101C3000A0000000460000000000FA00FFFFFFFFC8
:101C4000000000000F0000000100FFFFFFFFFFFF8A
:101C5000A028000046000000040000000000000072
:101C600000000000000000000100FFFFFFFFFFFF79
:101C7000A00000003C00000000004702FFFFFFFF43
:101C8000000000000F0000000100FFFFFFFFFFFF4A
:101C9000A02800003C0000000000FFFF9503FEFFAD
:101CA00000000000190000000100FFFFFFFFFFFF20
:101CB000401F0000280000000000FA00FFFFFFFFA7
:101CC000000000000F0000000100FFFFFFFFFFFF0A
:101CD000A02800003C0000000000FFFFFA00FFFF0A
:101CE00000000000190000000400000000000000D7
:101CF0000000000000000000281A00080901000090
:101D000098190008090100000819000809010000DD
:101D1000B81A000809010000481B0008090100006A
:101D2000D81B000809010000681C00080901000018
:101D3000501D000800000020380000001C1300089F
:101D4000881D000838000020900900002C130008AE
:101D50000000000000A24A04000000000000000093
:101D6000010203040607080900000000000000004B
:101D7000FA00000000000102030401020304060748
:081D8000080902040608000036
:0400000508000131BD
:00000001FF
