:020000040800F2
:10000000D0090020490100081D070008B3050008B9
:10001000D10500089D010008191500080000000026
:10002000000000000000000000000000B90C000803
:10003000D502000800000000A10B0008B50E000862
:100040006301000863010008630100086301000800
:1000500063010008630100086301000863010008F0
:1000600063010008630100086301000863010008E0
:1000700063010008630100086301000863010008D0
:1000800063010008630100086301000863010008C0
:1000900063010008630100086301000863010008B0
:1000A00063010008630100086301000863010008A0
:1000B0006301000863010008630100086301000890
:1000C0006301000863010008630100086301000880
:1000D000630100083912000863010008C11200081A
:1000E0006301000863010008630100086301000860
:1000F0006301000863010008630100086301000850
:10010000630100086301000863010008630100083F
:10011000630100086301000863010008630100082F
:10012000630100086301000863010008630100081F
:10013000DFF810D000F01AF8004800476D160008EC
:10014000AFF30080D00900200648804706480047EA
:10015000FEE7FEE7FEE7FEE7FEE7FEE7FEE7FEE777
:10016000FEE7FEE7B90E000831010008064C074D16
:1001700006E0E06840F0010394E807009847103477
:10018000AC42F6D3FFF7D8FFF81F0008182000088C
:1001900010B50446204600F01DFA10BD00BFFEE772
:1001A0000146002901DD01207047002902DA4FF0E5
:1001B000FF30F9E70020F7E70146002209B90020E7
:1001C000704772B60948007860B109480078087035
:1001D0000748407848700648807888700020034BB4
:1001E0001870012262B61046EAE700001B000020EA
:1001F0001800002000B587B00121092000F0E2FCC2
:100200000121880400F0CEFC4FF48060ADF81800A6
:1002100003208DF81A0018208DF81B0006A922482B
:1002200000F0E6F84FF40060ADF8180048208DF8B3
:100230001B0006A91C4800F0DBF84FF4E1300290E7
:100240000020ADF80C00ADF80E00ADF81000ADF8D0
:1002500014000C20ADF8120002A9144801F0F0F8C7
:1002600027208DF8040000208DF805008DF8060089
:1002700001208DF8070001A800F052FA0B48008811
:100280000A48001D008840F22551084801F06EF828
:10029000012240F22551054801F0ADF80121034843
:1002A00001F073F807B000BD000C014000480040A9
:1002B00072B60020044908704870887003490870BD
:1002C0000349087062B67047180000201B00002028
:1002D0002100002070472DE9FF4706460F461546CE
:1002E0009846DDE90D9A0C9C002000900190029048
:1002F00003908DF80060FD208DF801008DF80270EC
:1003000028128DF80300E8B28DF804008DF80580FE
:10031000200E8DF80600200C8DF80700200A8DF8BD
:100320000800E0B28DF809008DF80A908DF80BA056
:100330006B208DF80C000D21684601F02BFCBDE808
:10034000FF877FB505460C46002000900190029083
:1003500003908DF80050FE208DF8010098208DF854
:1003600002008DF803406B208DF8040005216846DB
:1003700001F010FC7FBD1FB500200090019002909D
:1003800003908DF80000FF208DF8010066208DF8A5
:1003900002006B208DF803000421684601F0FAFB8F
:1003A0001FBD2DE9FF4105460F4614461E46DDF8E8
:1003B0002880002000900190029003908DF800505A
:1003C000F6208DF801008DF8027020128DF80300E0
:1003D000E0B28DF804008DF805608DF806806B2082
:1003E0008DF807000821684601F0D4FBBDE8FF81C5
:1003F0002DE9F041024600250026002000230024BC
:10040000002791F803C00CF00F0591F803C00CF021
:10041000100CBCF1000F03D091F802C04CEA0505A6
:1004200091F800C0BCF1000F31D0146800202BE01F
:100430004FF0010C0CFA00F3B1F800C00CEA03060F
:100440009E4220D183004FF00F0C0CFA03F7BC43FF
:1004500005FA03FC4CEA040491F803C0BCF1280F30
:1004600006D14FF0010C0CFA00FCC2F814C00AE0EF
:1004700091F803C0BCF1480F05D14FF0010C0CFA04
:1004800000FCC2F810C0401C0828D1D31460B1F899
:1004900000C0BCF1FF0F34DD546800202EE000F1F5
:1004A000080C4FF0010808FA0CF3B1F800C00CEA90
:1004B00003069E4221D183004FF00F0C0CFA03F784
:1004C000BC4305FA03FC4CEA040491F803C0BCF1F8
:1004D000280F05D100F1080C08FA0CF8C2F81480B6
:1004E00091F803C0BCF1480F07D100F1080C4FF0A0
:1004F000010808FA0CF8C2F81080401C0828CED376
:100500005460BDE8F0810000F0B50A4600230024E5
:100510000021002500F00046B6F1004F02D11D4E2B
:10052000F16901E01B4E7168C0F3034583B200F42A
:100530004016B6F5401F08D121F07061154E76685F
:1005400026F07066134F7E6012E000F48016B6F558
:10055000801F06D1032606FA05F4A14341F070611D
:1005600006E0460D360103FA06F6B14341F070612C
:1005700022B1460D360103FA06F6314300F000467B
:10058000B6F1004F02D1034EF16101E0014E7160FE
:10059000F0BD0000000001400246002093680B40BF
:1005A0000BB1012000E000207047416170470161FC
:1005B000704700BFFEE70146C82901DDC82070472B
:1005C00011F1C80F02DA6FF0C700F8E70846F6E746
:1005D00000BFFEE770B50546002405E0285D012157
:1005E000FFF7AFFE601CC4B2042CF7DBFFF7C3FEBD
:1005F00070BD2DE9F04104460D4617461E46DDF854
:10060000188020782A46002100F01FF8052000F00D
:10061000AFFF60783A46012100F017F8052000F09E
:10062000A7FFA0783246002100F00FF8052000F067
:100630009FFFE0784246012100F007F8052000F016
:1006400097FFFFF798FEBDE8F0812DE9FE430746CE
:100650000D461446A846FF26002C01DD66430AE03D
:10066000002C07DA0DB9012000E00020804660422E
:10067000464300E000260120002196236422CDE9B4
:100680000061029041463846FFF725FEBDE8FE8333
:100690002DE9F84307460D461446A846002C06DA15
:1006A0000DB9012000E000208046604204B2A6B2ED
:1006B0000120FF233246414600903846FFF771FE85
:1006C000BDE8F8832DE9F04104460D4617461E4665
:1006D000DDF8188020782A460021FFF7D9FF052091
:1006E00000F046FF60783A460121FFF7D1FF052070
:1006F00000F03EFFA07832460021FFF7C9FF052039
:1007000000F036FFE07842460121FFF7C1FF0520E7
:1007100000F02EFFFFF72FFEBDE8F08170470000CC
:1007200070B5002100230F22C47804B3154C24684F
:1007300004F4E064C4F5E064210AC1F10403CA4092
:10074000447804FA03F184781440214309010E4CE3
:100750000678A155047804F01F050124AC40057803
:100760006D11AD0005F1E025C5F8004109E0047800
:1007700004F01F050124AC40044D0678761145F8BD
:10078000264070BD0CED00E000E400E080E100E0F8
:1007900002490143024A1160704700000000FA0557
:1007A0000CED00E030B503460C4614B1C3F18001F6
:1007B00001E0A3F1800111F10C0F03DD0C2901DA36
:1007C000002030BD01FB02F07F2590FBF5F000B268
:1007D000F7E7000008B50DE00021009102E0009964
:1007E000491C009106490968064AB1FBF2F1009ADA
:1007F0009142F4D8011EA0F10100EDD108BD000026
:100800000400002000127A0008B50121042000F045
:10081000D9F91020ADF8000048208DF8030003201E
:100820008DF8020069460E48FFF7E2FDE020ADF8C2
:10083000000010208DF8030003208DF802006946A7
:100840000748FFF7D5FD20210548FFF7B0FE8021BE
:100850000348FFF7ACFE40210148FFF7A8FE08BDA2
:100860000008014070B505460026012421E004EA95
:10087000050020B120211148FFF799FE03E0202157
:100880000E48FFF792FE80210C48FFF78EFE1020E5
:10089000FFF7A0FF10210948FFF77EFE00B12643B5
:1008A00080210648FFF783FE1020FFF793FF6006C4
:1008B000040E002CDBDC304670BD00000008014057
:1008C00070B5044640211548FFF76FFE002507E08C
:1008D0001349485DFFF7C6FF12494855681CC5B269
:1008E000092DF5DB40210D48FFF761FE0D484078EA
:1008F00020700C48C078C04360700A480079C0433B
:10090000A07008484079E070064880792071054859
:10091000C07960710348007AA07170BD0008014081
:100920005C1C0008BA0100200020014908727047D1
:10093000C40100202DE9FE4304466688A788E588A7
:100940004FF6FF70854227D02D48407802280FD1FE
:100950002B48C07810B1012806D102E040F24725AB
:1009600005E040F2953502E040F2E24500BF13E0B9
:100970002348407805280FD12148C07810B10128BC
:1009800006D102E040F2E24505E040F2953502E092
:1009900040F2472500BF00BF4FF6FF70864202D0ED
:1009A000304600F08BF94FF6FF70874202D0384690
:1009B00000F08EF94FF6FE70854201D1114805888E
:1009C0004FF6FF70854202D0284600F0EBF9A06890
:1009D00080B1D4F808800120CDE90080C8234FF40D
:1009E0009672014602900520FFF775FC012004492C
:1009F000C87102E000200249C871BDE8FE83000012
:100A0000C4010020220000200020054908708871E0
:100A100048708870C8708880C8710872704700007C
:100A2000C40100200448807920B10348007A08B14D
:100A3000012070470020FCE7C40100200D4989799E
:100A400001B17047062800D3FBE70A49487000212E
:100A5000084A9170D1709180D171032801DB012186
:100A600000E00021034A11720121917100211170EF
:100A700000BFE6E7C4010020002004498871087027
:100A800088808870C870087270470000C401002018
:100A900070B54148807900B970BD3F48007A00B117
:100AA000FAE73D4840783D4901EBC0053A4989786D
:100AB000286800EB01143848007820B1012843D0A1
:100AC000022865D152E02078042808D13248C07845
:100AD000401C3149C870002088710870DCE720464E
:100AE000FFF728FF207803280ED1A089002805DD14
:100AF000A089294988800220087024E0264880784F
:100B0000401C254988701EE02348C07968B1A0893F
:100B1000002803DDA0892049888002E07D201E494D
:100B2000888001201C4908700DE0A089002805DD9F
:100B3000A089194988800220087004E0164880784E
:100B4000401C1549887023E013488088002805DD83
:100B500011488088401E1049888006E00E48807841
:100B6000401C0D4988700020087011E00A488088F8
:100B7000002805DD08488088401E0749888006E077
:100B800005488078401C044988700020087000BF28
:100B900000BF00BF80E70000C4010020C81F00089C
:100BA0007047000029B1064AD2690243044BDA615A
:100BB00004E0034AD2698243014BDA6170470000C6
:100BC0000010024029B1064A92690243044B9A611F
:100BD00004E0034A92698243014B9A617047000026
:100BE0000010024030B500210022002400232D4DCA
:100BF0006D6805F00C0121B1042905D0082923D125
:100C000005E0294D056022E0274D05601FE0254DD8
:100C10006D6805F47012234D6D6805F4803402256B
:100C200005EB92421CB9214D554305600BE01D4D6B
:100C30006D6805F400351DB11C4D5543056002E09B
:100C4000194D5543056002E0174D056000BF00BF18
:100C5000144D6D6805F0F0010909154D6B5C0568D0
:100C6000DD4045600F4D6D6805F4E061090A104DE7
:100C70006B5C4568DD4085600A4D6D6805F4605128
:100C8000C90A0B4D6B5C4568DD40C560054D6D685C
:100C900005F44041890B074D6B5CC568B5FBF3F566
:100CA000056130BD0010024000127A0000093D00CD
:100CB00024000020340000207047000010B50446D6
:100CC0002146024800F05FFA10BD000000340140E8
:100CD00010B504462146024800F057FA10BD000046
:100CE0000034014000B589B001211020FFF76AFFF0
:100CF00001214803FFF766FF4FF4E070ADF82000D4
:100D000018208DF8230003208DF8220008A923481D
:100D1000FFF76EFB42F20F70ADF818008F20ADF8B0
:100D200014000020ADF81600ADF81A0005A91C4803
:100D300000F030FA6020ADF804000020ADF80C009F
:100D40000120ADF8060040F2EE20ADF80A0001A93E
:100D5000134800F009F90021114800F051F901A9E8
:100D60000F4800F057F900210D4800F0A5F901A93E
:100D70000B4800F0AFF90021094800F0FBF9012110
:100D8000074800F0C9F80121054800F0DDF801210D
:100D9000034800F0CDF809B000BD0000001001408C
:100DA0000034014010B504462146024800F0EFF936
:100DB00010BD00000034014010B500F001F810BD76
:100DC0000CB50020019000903348006840F480305A
:100DD0003149086000BF3048006800F400300090DE
:100DE0000198401C0190009818B90198B0F5A06FC7
:100DF000F1D12948006800F4003010B101200090C2
:100E000001E0002000900098012843D123480068A9
:100E100040F01000214908600846006820F00300F7
:100E200008600846006840F0020008601A48406800
:100E3000194948600846406848600846406840F4E0
:100E4000806048600846406820F47C10486008468E
:100E5000406840F4E81048600846006840F0807040
:100E6000086000BF0C48006800F000700028F9D04E
:100E70000948406820F00300074948600846406878
:100E800040F00200486000BF0348406800F00C00DA
:100E90000828F9D10CBD00000010024000200240DB
:100EA00010B50446024804800088FFF77BFF10BDA0
:100EB000220000207047000010B51348006840F081
:100EC00001001149086008464068104908400E4971
:100ED0004860084600680E4908400B49086008460B
:100EE000006820F4802008600846406820F4FE0076
:100EF00048604FF41F008860FFF75EFF4FF000600E
:100F00000449086010BD0000001002400000FFF816
:100F1000FFFFF6FE08ED00E021B1028842F08002FA
:100F2000028004E002884FF67F731A400280704707
:100F300021B1028842F00102028004E002884FF6EB
:100F4000FE731A400280704731B1B0F8442042F479
:100F50000042A0F8442005E0B0F84420C2F30E029D
:100F6000A0F844207047000070B500240022002340
:100F7000058C4FF6FE7635400584028C8388048B01
:100F80004FF68F752C40B51E2C400D882C43751ED6
:100F90002A400D892A434D882A43144DA8420BD07C
:100FA000134DA84208D0134DA84205D0124DA842B7
:100FB00002D0124DA84213D14FF6F7752A404D8941
:100FC0002A434FF6FB752A408D882A434FF6FF656A
:100FD0002B404FF6FF552B408D892B43CD892B435A
:100FE00083800483CD888586028470BD002C0140F7
:100FF00000340140004001400044014000480140ED
:101000000A460021018B4FF6F77319401143018303
:101010007047000070B5002400220023058C4FF6B5
:10102000EF7635400584028C8388048B48F6FF7583
:101030002C404FF6FF452C400D884FF6FF7606EA10
:1010400005252C434FF6DF752A400D8906EA051564
:101050002A434D8806EA05152A43154DA84202D0B9
:10106000144DA8421DD14FF67F752A404D894FF689
:10107000FF7606EA05152A434FF6BF752A408D888C
:1010800006EA05152A434FF6FF352B404FF2FF7550
:101090002B408D8906EA85052B43CD8906EA850517
:1010A0002B4383800483CD880587028470BD0000B4
:1010B000002C0140003401400A460021018B4FF210
:1010C000FF7319404FF6FF7303EA022319430183AC
:1010D0007047000070B5002400220023058C4FF6F5
:1010E000FF6635400584028C8388848B4FF68F75AC
:1010F0002C404FF6FC752C400D882C434FF6FF55C5
:101100002A400D894FF6FF7606EA05252A434D88C9
:1011100006EA05252A43154DA84202D0144DA842DF
:101120001DD14FF2FF752A404D894FF6FF7606EA32
:1011300005252A434FF6FF352A408D8806EA052506
:101140002A434EF6FF752B404DF6FF752B408D89D7
:1011500006EA05152B43CD8906EA05152B43838046
:101160008483CD888587028470BD0000002C0140F7
:10117000003401400A460021818B4FF6F773194075
:10118000114381837047818670470187704781874B
:1011900070470000002202881D4B98420ED01D4B64
:1011A00098420BD0B0F1804F08D01B4B984205D02D
:1011B0001A4B984202D01A4B984204D14FF68F73C3
:1011C0001A404B881A43174B984207D0164B984247
:1011D00004D04FF6FF431A40CB881A4302808B8815
:1011E00083850B8803850A4B98420BD0094B9842A4
:1011F00008D00E4B984205D00D4B984202D00D4BB3
:10120000984201D10B7A0386012383827047000044
:10121000002C014000340140000400400008004060
:10122000000C00400010004000140040004001404D
:10123000004401400048014008B50020009040F201
:1012400025511B4800F0ADF858B11949091D09880E
:10125000C8B200F0D5F940F22551154800F086F8E3
:1012600025E040F22441124800F09BF8F8B1104804
:1012700000880F48001D008800F0DAF90D49087059
:10128000002000900AE000F0A3F90B49BDF800200F
:101290008854BDF80000401C80B20090BDF80000EA
:1012A000044909788842EEDB01200449087008BD32
:1012B000003801400100002038000020000000201C
:1012C00010B540F22551244800F06BF8002842D0B8
:1012D0002148001D0088C4B22048007848B9AA2CD3
:1012E00034D11E490878411C1C4A11701C490C5409
:1012F0002CE01A490878411C184A117018490C54FE
:1013000010460078052821DB08460078AA2810D16D
:10131000552C0ED108464078124908701048807844
:1013200040B248700E48C07840B2887001200E4923
:101330000870AA2C01D1012000E0002007490870A4
:1013400008460078012801D10548047040F2255173
:10135000014800F00BF810BD0048004021000020BB
:101360001C000020180000201B00002010B50022E7
:10137000002340F66A14A14200D100BF0A120124E2
:101380009440A3B2DC43048010BD21B1828942F4B1
:101390000052828104E082894DF6FF731A408281F7
:1013A000704770B50246002400230025002040F657
:1013B0006A16B14200D100BFC1F3421501F01F030C
:1013C000012606FA03F3012D02D19689334006E087
:1013D000022D02D1168A334001E0968A33400C1266
:1013E000012606FA04F41688344013B10CB101202A
:1013F00000E0002070BDF0B5034600240026002563
:10140000002040F66A17B94200D100BF1846C1F368
:10141000421401F01F06012707FA06F5012C01D13D
:101420000C3004E0022C01D1103000E014301AB16D
:1014300007682F43076002E00768AF430760F0BD0D
:101440002DE9F04786B005460E460024A24600BFAF
:10145000A1460027B08900B100BF2F462C8A4CF668
:10146000FF700440F08804432C82AC894EF6F310E0
:101470000440B08831890843718908430443AC8132
:10148000AC8A4FF6FF400440B0890443AC8201A807
:10149000FFF7A8FB1F48874202D1DDF810A001E04A
:1014A000DDF80CA0A88900F4004040B10AEBCA00A6
:1014B00000EB0A1031684900B0FBF1F807E00AEBD5
:1014C000CA0000EB0A1031688900B0FBF1F8642013
:1014D000B8FBF0F004012009642101FB1089A88900
:1014E00000F4004040B1322000EBC900B0FBF1F045
:1014F00000F00700044308E0322000EB09106421EB
:10150000B0FBF1F000F00F0004432C8106B0BDE801
:10151000F08700000038014000BFFEE702E008C885
:10152000121F08C1002AFAD170477047002001E05D
:1015300001C1121F002AFBD1704710B500F0F7FA65
:1015400000F006F800F03CFBFEF754FE10BD000072
:1015500010B501210D20FFF735FB01218803FFF7AE
:1015600031FB01210148FEF7CFFF10BD0002300022
:1015700008B5002100916FF07F414FF0E0225161EA
:10158000002191610521116114E000214FF0E0225A
:1015900091610E4909684FF47A72B1FBF2F1C1F121
:1015A0008071009100BF4FF0E0218969009A91425B
:1015B000F9D8401E0028E8DC4FF0E021096921F04D
:1015C00001014FF0E022116108BD0000040000207D
:1015D00000200A4991F80111084A32F81100114619
:1015E00091F80111491C82F80111114691F801117D
:1015F000802902DB002182F801117047B800002029
:101600000A4991F80011094A22F81100114691F88F
:101610000011491C82F80011114691F8001180292F
:1016200002DB002182F8001170470000B8000020A2
:101630000D4890F801010C4991F80011884208DC2E
:10164000094890F80001084991F80111401A80B248
:101650007047054890F80101C0F18000024991F8F7
:101660000011084480B2F3E7B800002092B00020D7
:1016700011901090002500260027FAA000680E9017
:1016800000200A90099008900790069083460590E4
:10169000049003900024FFF750FFFFF723FBFA208C
:1016A000FFF70CFBFA20FFF713FBFA20FFF77AFB9A
:1016B000FFF7AAF8FFF7A8F9002011900CE00EAA96
:1016C0001199505C0021FEF73CFE0520FFF750FF0A
:1016D0001198401CC0B2119011980428EFDB4FF410
:1016E000FA60FFF745FF00210520FEF72AFE0520DE
:1016F000FFF73EFF012042F6E062CDE90020C8235B
:101700004FF49672014602900520FEF7E4FD40F684
:10171000C410FFF72DFF09E20CA8FFF7D1F89DF8E0
:10172000300073280CD00EA8FEF732FDFFF7A4F9A5
:1017300000201090049008901420FFF719FFF5E1A5
:101740009DF8320000F00A000A280CD10EA8FEF71E
:101750001FFDFFF791F900201090049008901420CD
:10176000FFF706FFE2E11098E0B90EA8FEF732FF9E
:101770009DF8310000F0080070B1FA20FFF7A8FAD8
:10178000FA20FFF70FFBFA20FFF798FA4FF4FA70F0
:10179000FFF7EEFE01201090002004901420FFF7C8
:1017A000E7FEC3E1FFF73EF9002875D00020049062
:1017B00005900898B0B10798143080B20790079848
:1017C000B0F5967F05DB0EA8FEF704FF0020089019
:1017D00007909DF8310003909DF832401420FFF7E8
:1017E000C7FEA3E10BA8FEF7E7FC002879D0002094
:1017F00009909DF82C00D0B99DF82D00B8B99DF83E
:101800002E00A0B90A98032803DA0A98401CC0B237
:101810000A900A98032878DB0EA8FEF7DBFEFFF794
:1018200083F8FEF745FD00200A9008906DE0002047
:101830000A909DF92E00FEF7B3FC06909DF92D004D
:10184000FEF7AEFC8346069800EB0B080698A0EB6B
:101850000B090698A0EB0B000F90069800EB0B0A03
:10186000B8F17F0F02DD4FF07F0804E018F1800F20
:1018700001DA6FF07F08B9F17F0F02DD4FF07F09C9
:1018800004E019F1800F01DA6FF07F090F987F28CB
:1018900003DD7F200F9007E040E00F9810F1800FEC
:1018A00002DA6FF07F000F90BAF17F0F02DD4FF088
:1018B0007F0A04E01AF1800F01DA6FF07F0A4FFA15
:1018C0008AF000900F9843B24FFA89F24FFA88F1EC
:1018D0000EA8FEF78EFE012008900020079014E06D
:1018E000FFE70998B0F5967F04DA0998143080B2C2
:1018F00009900AE00EA8FEF76DFEFFF7BDF8FEF7AF
:10190000D7FC00200A90099008909DF831000390C0
:101910009DF832401420FFF72BFE07E19DF83600BA
:10192000C8220121FEF73EFF05469DF83500C8227A
:101930000021FEF737FF07469DF83300642200219F
:10194000FEF730FF0646EDB9E7B9DEB9049858B99D
:1019500001200490002005900346024601460090B5
:101960000EA8FEF7AFFE03E00598143080B2059094
:101970000598B0F5FA7F28DB0EA8FEF72BFE0020B5
:10198000049022E0002004900590E919314408B247
:10199000FEF711FE8046E91B891B08B2FEF70BFE1D
:1019A0008146E91B314408B2FEF705FE0F90E919A4
:1019B000891B08B2FEF7FFFD8246CDF800A04A461B
:1019C00041460EA80F9BFEF77DFE9DF8310000F00A
:1019D000400038B1039800F0400018B9FA20FFF732
:1019E0005FFA28E09DF8310000F0800040B10398D4
:1019F00000F0800020B940F24720FFF751FA1AE0CA
:101A00009DF8310000F0100040B1039800F0100084
:101A100020B940F29530FFF743FA0CE09DF8310011
:101A200000F0200038B1039800F0200018B940F20F
:101A3000E240FFF735FA9DF8320000F0040058B399
:101A40009DF8320000F0010030BB9DF8320000F03C
:101A5000100048B104F0100030B90020FEF7EEFF8E
:101A600059E00000010203049DF8320000F08000FC
:101A700030B104F0800018B90120FEF7DFFF4AE022
:101A80009DF8320000F0400008B304F04000F0B9C7
:101A90000220FEF7D3FF3EE09DF8320000F0010087
:101AA000A8B19DF8320000F0040080B99DF8320022
:101AB00000F0100060B104F0100048B9FEF7F8FB28
:101AC00000200A90099008900320FEF7B7FF22E05B
:101AD0009DF8320000F0800060B104F0800048B949
:101AE000FEF7E6FB00200A90099008900420FEF71C
:101AF000A5FF10E09DF8320000F0400058B104F05E
:101B0000400040B9FEF7D4FB00200A9009900890ED
:101B10000520FEF793FFFEF7BBFF9DF83100039011
:101B20009DF832401420FFF723FD00BFF4E508B50F
:101B30004FF44070FEF72CFE01208DF803000020CA
:101B40008DF802008DF8010025208DF80000684610
:101B5000FEF7E6FD08BD000008B500210091C0F3C6
:101B600008010B4A11800AE0BDF80010491C89B237
:101B70000091BDF80010B1F5FA5F00DD08BD044921
:101B8000091F098801F080010029EDD000BFF5E7A9
:101B90000438014038B504460D46002000900090FE
:101BA00009E09DF80010605CFFF7D6FF9DF800008B
:101BB000401CC0B200909DF80000A842F1DB38BD87
:101BC00000B585B04FF40070ADF8100003208DF81B
:101BD000120018208DF8130004A91E48FEF708FC17
:101BE0004FF48060ADF8100048208DF8130004A970
:101BF0001848FEF7FDFB4FF4E13000900020ADF8EF
:101C00000400ADF80600ADF80800ADF80C000C209B
:101C1000ADF80A0069461048FFF712FC0E4800882C
:101C20000D48001D008840F225510B48FFF79EFB30
:101C3000012240F225510848FFF7DDFB012240F266
:101C400024410548FFF7D7FB01210348FFF79DFB1F
:101C500005B000BD0008014000380140014200000D
:101C600000000000000000000100FFFFFFFFFFFF79
:101C7000200D00003C00000000004702FFFFFFFFB6
:101C8000000000000F0000000100FFFFFFFFFFFF4A
:101C9000E02E00003C0000000000FFFF7304FFFF87
:101CA00000000000190000000100FFFFFFFFFFFF20
:101CB00000190000280000000000FA00FFFFFFFFED
:101CC000000000000F0000000100FFFFFFFFFFFF0A
:101CD000E02E00003C0000000000FFFFFA00FFFFC4
:101CE00000000000190000000400000000000000D7
:101CF00000000000000000000100FFFFFFFFFFFFE9
:101D0000200D00003C00000000004702FFFFFFFF25
:101D1000000000000F0000000100FFFFFFFFFFFFB9
:101D2000E02E00003C0000000000FFFF9503FEFFD6
:101D300000000000190000000100FFFFFFFFFFFF8F
:101D400000190000280000000000FA00FFFFFFFF5C
:101D5000000000000F0000000100FFFFFFFFFFFF79
:101D6000E02E00003C0000000000FFFFFA00FFFF33
:101D70000000000019000000040000000000000046
:101D800000000000000000000100FFFFFFFFFFFF58
:101D9000200D00003C00000000004702FFFFFFFF95
:101DA000000000000F0000000100FFFFFFFFFFFF29
:101DB000E02E00003C0000000000FFFFB602FFFF25
:101DC00000000000190000000100FFFFFFFFFFFFFF
:101DD00000190000280000000000FA00FFFFFFFFCC
:101DE000000000000F0000000100FFFFFFFFFFFFE9
:101DF000E02E00003C0000000000FFFFFA00FFFFA3
:101E000000000000190000000400000000000000B5
:101E100000000000000000000000FFFFB602FFFF0E
:101E200000000000190000000100FFFFFFFFFFFF9E
:101E3000001900002800000000004702FFFFFFFF1C
:101E4000000000000F0000000100FFFFFFFFFFFF88
:101E5000E02E00003C0000000000FFFFFA00FFFF42
:101E600000000000190000000100FFFFFFFFFFFF5E
:101E7000A0000000460000000000FA00FFFFFFFF86
:101E8000000000000F0000000100FFFFFFFFFFFF48
:101E9000E02E0000460000000400000000000000EA
:101EA00000000000000000000000FFFF9503FFFF9E
:101EB00000000000140000000100FFFFFFFFFFFF13
:101EC000001900002800000000004702FFFFFFFF8C
:101ED000000000000F0000000100FFFFFFFFFFFFF8
:101EE000E02E00003C0000000000FFFFFA00FFFFB2
:101EF00000000000190000000100FFFFFFFFFFFFCE
:101F0000A0000000460000000000FA00FFFFFFFFF5
:101F1000000000000F0000000100FFFFFFFFFFFFB7
:101F2000E02E000046000000040000000000000059
:101F300000000000000000000000FFFF7304FFFF2E
:101F400000000000190000000100FFFFFFFFFFFF7D
:101F5000001900002800000000004702FFFFFFFFFB
:101F6000000000000F0000000100FFFFFFFFFFFF67
:101F7000E02E00003C0000000000FFFFFA00FFFF21
:101F800000000000190000000100FFFFFFFFFFFF3D
:101F9000A0000000460000000000FA00FFFFFFFF65
:101FA000000000000F0000000100FFFFFFFFFFFF27
:101FB000E02E0000460000000400000000000000C9
:101FC0000000000000000000881D0008090100005A
:101FD000F81C000809010000681C00080901000045
:101FE000181E000809010000A81E000809010000D1
:101FF000381F000809010000182000080000002018
:10200000380000001C15000850200008380000208F
:10201000980900002C1500080000000000A24A04E6
:102020000000000000000000010203040607080988
:1020300000000000000000000000FA0000000000A6
:10204000010203040102030406070809020406084A
:0400000508000131BD
:00000001FF
