:020000040800F2
:10000000C0090020490100087B060008AF05000870
:10001000CD050008C1010008FD1200080000000025
:100020000000000000000000000000005D0B000860
:10003000C501000800000000650A0008450D000821
:100040006301000863010008630100086301000800
:1000500063010008630100086301000863010008F0
:1000600063010008630100086301000863010008E0
:1000700063010008630100086301000863010008D0
:1000800063010008630100086301000863010008C0
:1000900063010008630100086301000863010008B0
:1000A00063010008630100086301000863010008A0
:1000B0006301000863010008630100086301000890
:1000C0006301000863010008630100086301000880
:1000D00063010008C91000086301000863010008FB
:1000E0006301000863010008630100086301000860
:1000F0006301000863010008630100086301000850
:10010000630100086301000863010008630100083F
:10011000630100086301000863010008630100082F
:10012000630100086301000863010008630100081F
:10013000DFF810D000F02CF8004800474D140008FC
:10014000AFF30080C00900200648804706480047FA
:10015000FEE7FEE7FEE7FEE7FEE7FEE7FEE7FEE777
:10016000FEE7FEE7490D000831010008D2B201E0C8
:1001700000F8012B491EFBD270470022F6E710B5AC
:1001800013460A4604461946FFF7F0FF204610BD05
:10019000064C074D06E0E06840F0010394E80700D4
:1001A00098471034AC42F6D3FFF7C6FF581C00083E
:1001B000781C000810B50446204600F009FA10BD6E
:1001C00000BFFEE770472DE9F04F89B005460E46A7
:1001D0001746984613AC94E8100E202101A8FFF7AB
:1001E000CCFF8DF804504C208DF80500AE208DF822
:1001F00006008DF807608DF808708DF80980129858
:1002000000128DF80A001298C0B28DF80B00200E73
:100210008DF80C00200C8DF80D00200A8DF80E00D2
:10022000E0B28DF80F004FEA29208DF8100009F098
:10023000FF008DF811004FEA2A208DF812000AF015
:10024000FF008DF813004FEA2B208DF814000BF0FF
:10025000FF008DF8150017988DF816006B208DF8AB
:100260001700142101A801F03DFA09B0BDE8F08F94
:100270007FB506460C46154600200090019002907E
:1002800003908DF800609A208DF801008DF80240EF
:100290008DF803506B208DF804000521684601F0AD
:1002A00021FA7FBD2DE9FF4706460F4615469846C1
:1002B000DDE90D9A0C9C00200090019002900390C3
:1002C0008DF80060FD208DF801008DF80270281275
:1002D0008DF80300E8B28DF804008DF80580200E3B
:1002E0008DF80600200C8DF80700200A8DF8080014
:1002F000E0B28DF809008DF80A908DF80BA06B2004
:100300008DF80C000D21684601F0ECF9BDE8FF877F
:100310001FB50446002000900190029003908DF8D4
:1003200000400A208DF801006D208DF802006B203E
:100330008DF803000421684601F0D4F91FBD7FB594
:1003400005460C46002000900190029003908DF825
:100350000050FE208DF8010098208DF802008DF8E5
:1003600003406B208DF804000521684601F0BAF9BE
:100370007FBD1FB5002000900190029003908DF882
:100380000000FF208DF8010066208DF802006B2030
:100390008DF803000421684601F0A4F91FBD2DE982
:1003A000FF4105460F4614461E46DDF82880002012
:1003B00000900190029003908DF80050F6208DF887
:1003C00001008DF8027020128DF80300E0B28DF864
:1003D00004008DF805608DF806806B208DF807000D
:1003E0000821684601F07EF9BDE8FF812DE9F04162
:1003F000024600250026002000230024002791F853
:1004000003C00CF00F0591F803C00CF0100CBCF108
:10041000000F03D091F802C04CEA050591F800C026
:10042000BCF1000F31D0146800202BE04FF0010C1C
:100430000CFA00F3B1F800C00CEA03069E4220D18A
:1004400083004FF00F0C0CFA03F7BC4305FA03FCD2
:100450004CEA040491F803C0BCF1280F06D14FF018
:10046000010C0CFA00FCC2F814C00AE091F803C0B9
:10047000BCF1480F05D14FF0010C0CFA00FCC2F89A
:1004800010C0401C0828D1D31460B1F800C0BCF1E2
:10049000FF0F34DD546800202EE000F1080C4FF00F
:1004A000010808FA0CF3B1F800C00CEA03069E42FA
:1004B00021D183004FF00F0C0CFA03F7BC4305FA6F
:1004C00003FC4CEA040491F803C0BCF1280F05D1E9
:1004D00000F1080C08FA0CF8C2F8148091F803C077
:1004E000BCF1480F07D100F1080C4FF0010808FAE1
:1004F0000CF8C2F81080401C0828CED35460BDE828
:10050000F0810000F0B50A460023002400210025F8
:1005100000F00046B6F1004F02D11D4EF16901E036
:100520001B4E7168C0F3034583B200F44016B6F564
:10053000401F08D121F07061154E766826F0706674
:10054000134F7E6012E000F48016B6F5801F06D1CE
:10055000032606FA05F4A14341F0706106E0460D5A
:10056000360103FA06F6B14341F0706122B1460D3F
:10057000360103FA06F6314300F00046B6F1004FAB
:1005800002D1034EF16101E0014E7160F0BD000047
:10059000000001400246002093680B400BB101208F
:1005A00000E000207047416170470161704700BF63
:1005B000FEE70146C82901DDC820704711F1C80FC8
:1005C00002DA6FF0C700F8E70846F6E700BFFEE77B
:1005D00070B50546002405E0285D0121FFF7AFFE58
:1005E000601CC4B2042CF7DBFFF7C3FE70BD2DE91D
:1005F000F84307460D461446A846002C06DA0DB906
:10060000012000E000208046604204B2A6B2012032
:10061000FF233246414600903846FFF7C0FEBDE852
:10062000F8832DE9F04104460D4617461E46DDF8D5
:10063000188020782A460021FFF7D9FF052000F016
:1006400087FE60783A460121FFF7D1FF052000F0D0
:100650007FFEA07832460021FFF7C9FF052000F099
:1006600077FEE07842460121FFF7C1FF052000F048
:100670006FFEFFF77EFEBDE8F081704770B5002188
:1006800000230F22C47804B3154C246804F4E064FA
:10069000C4F5E064210AC1F10403CA40447804FAB5
:1006A00003F184781440214309010E4C0678A155CA
:1006B000047804F01F050124AC4005786D11AD00ED
:1006C00005F1E025C5F8004109E0047804F01F05B4
:1006D0000124AC40044D0678761145F8264070BDE3
:1006E0000CED00E000E400E080E100E0024901439D
:1006F000024A1160704700000000FA050CED00E0AE
:1007000030B503460C4614B1C3F1800101E0A3F1FA
:10071000800111F10C0F03DD0C2901DA002030BD3E
:1007200001FB02F07F2590FBF5F000B2F7E7000037
:1007300008B50DE00021009102E00099491C0091EC
:1007400006490968064AB1FBF2F1009A9142F4D8D1
:10075000011EA0F10100EDD108BD00000400002041
:1007600000127A0008B50121042000F07DF9102064
:10077000ADF8000048208DF8030003208DF802003A
:1007800069460E48FFF732FEE020ADF80000102069
:100790008DF8030003208DF8020069460748FFF733
:1007A00025FE20210548FFF700FF80210348FFF7C1
:1007B000FCFE40210148FFF7F8FE08BD000801409B
:1007C00070B505460026012421E004EA050020B1A9
:1007D00020211148FFF7E9FE03E020210E48FFF732
:1007E000E2FE80210C48FFF7DEFE1020FFF7A0FF9D
:1007F00010210948FFF7CEFE00B1264380210648AC
:10080000FFF7D3FE1020FFF793FF6006040E002CC5
:10081000DBDC304670BD00000008014070B50446C6
:1008200040211548FFF7BFFE002507E01349485D4A
:10083000FFF7C6FF12494855681CC5B2092DF5DB04
:1008400040210D48FFF7B1FE0D48407820700C485C
:10085000C078C04360700A480079C043A07008485F
:100860004079E0700648807920710548C079607150
:100870000348007AA07170BD00080140AC17000861
:10088000B60100202DE9FE4304466588A688E78866
:100890004FF6FF70854202D0284600F061F94FF60E
:1008A000FF70864202D0304600F064F94FF6FF70C8
:1008B000874202D0384600F0C7F9A06880B1D4F86A
:1008C000088001200021C8234FF49672CDE90081F1
:1008D00002900520FFF7E6FC01200449C87102E000
:1008E00000200249C871BDE8FE8300001800002006
:1008F000002004490870887148708870C87088802A
:10090000C8717047180000200A48807900B170470C
:1009100008484078401C00F0070006494870002055
:100920008870C8708880C8710120887100200870A4
:1009300000BFECE718000020002002498871087011
:10094000888070471800002070B54448807900B94D
:1009500070BD42484078424901EBC0053F49897863
:10096000286800EB01143D48007820B101284ED0E2
:10097000022870D15DE02078042813D13748C07870
:10098000401C3649C8700846C0786979884204DA44
:100990000020324988702C6804E000202F498871BB
:1009A000C870D5E72046FFF76DFF207803280ED1E9
:1009B000A089002805DDA0892849888002200870C8
:1009C00024E026488078401C244988701EE0234893
:1009D000C07968B1A089002803DDA0891F498880FB
:1009E00002E07D201D49888001201C4908700DE02F
:1009F000A089002805DDA089184988800220087098
:100A000004E016488078401C1449887023E013489D
:100A10008088002805DD11488088401E0F498880A5
:100A200006E00E488078401C0C4988700020087051
:100A300011E00A488088002805DD08488088401EAB
:100A40000649888006E005488078401C0349887084
:100A50000020087000BF00BF00BF79E71800002029
:100A6000181C00087047000029B1064A9269024329
:100A7000044B9A6104E0034A92698243014B9A61F4
:100A8000704700000010024030B500210022002411
:100A900000232D4D6D6805F00C0121B1042905D00E
:100AA000082923D105E0294D056022E0274D056086
:100AB0001FE0254D6D6805F47012234D6D6805F437
:100AC0008034022505EB92421CB9214D5543056047
:100AD0000BE01D4D6D6805F400351DB11C4D5543EF
:100AE000056002E0194D5543056002E0174D0560B1
:100AF00000BF00BF144D6D6805F0F0010909154DE8
:100B00006B5C0568DD4045600F4D6D6805F4E06184
:100B1000090A104D6B5C4568DD4085600A4D6D68C3
:100B200005F46051C90A0B4D6B5C4568DD40C5603A
:100B3000054D6D6805F44041890B074D6B5CC56838
:100B4000B5FBF3F5056130BD0010024000127A00DC
:100B500000093D0020000020300000207047000008
:100B600010B504462146024800F055FA10BD0000B9
:100B70000034014010B504462146024800F04DFA09
:100B800010BD00000034014000B589B001211020E3
:100B9000FFF76AFF01214803FFF766FF4FF4E0709B
:100BA000ADF8200018208DF8230003208DF82200D6
:100BB00008A92348FFF71AFC42F20F70ADF818009D
:100BC0008F20ADF814000020ADF81600ADF81A0023
:100BD00005A91C4800F026FA6020ADF804000020AA
:100BE000ADF80C000120ADF8060040F2EE20ADF8A3
:100BF0000A0001A9134800F0FFF80021114800F095
:100C000047F901A90F4800F04DF900210D4800F007
:100C10009BF901A90B4800F0A5F90021094800F053
:100C2000F1F90121074800F0BFF80121054800F063
:100C3000D3F80121034800F0C3F809B000BD00005B
:100C4000001001400034014010B50446214602481E
:100C500000F0E5F910BD00000034014010B500F0CF
:100C600001F810BD0CB500200190009033480068D9
:100C700040F480303149086000BF3048006800F41B
:100C8000003000900198401C0190009818B901981C
:100C9000B0F5A06FF1D12948006800F4003010B120
:100CA0000120009001E0002000900098012843D12D
:100CB0002348006840F01000214908600846006899
:100CC00020F0030008600846006840F00200086059
:100CD0001A48406819494860084640684860084614
:100CE000406840F4806048600846406820F47C100A
:100CF00048600846406840F4E810486008460068CC
:100D000040F08070086000BF0C48006800F0007080
:100D10000028F9D00948406820F0030007494860DE
:100D20000846406840F00200486000BF0348406841
:100D300000F00C000828F9D10CBD000000100240A2
:100D4000002002407047000010B51348006840F0D2
:100D500001001149086008464068104908400E49E2
:100D60004860084600680E4908400B49086008467C
:100D7000006820F4802008600846406820F4FE00E7
:100D800048604FF41F008860FFF768FF4FF0006075
:100D90000449086010BD0000001002400000FFF888
:100DA000FFFFF6FE08ED00E021B1028842F080026C
:100DB000028004E002884FF67F731A400280704779
:100DC00021B1028842F00102028004E002884FF65D
:100DD000FE731A400280704731B1B0F8442042F4EB
:100DE0000042A0F8442005E0B0F84420C2F30E020F
:100DF000A0F844207047000070B5002400220023B2
:100E0000058C4FF6FE7635400584028C8388048B72
:100E10004FF68F752C40B51E2C400D882C43751E47
:100E20002A400D892A434D882A43144DA8420BD0ED
:100E3000134DA84208D0134DA84205D0124DA84228
:100E400002D0124DA84213D14FF6F7752A404D89B2
:100E50002A434FF6FB752A408D882A434FF6FF65DB
:100E60002B404FF6FF552B408D892B43CD892B43CB
:100E700083800483CD888586028470BD002C014068
:100E8000003401400040014000440140004801405E
:100E90000A460021018B4FF6F77319401143018375
:100EA0007047000070B5002400220023058C4FF627
:100EB000EF7635400584028C8388048B48F6FF75F5
:100EC0002C404FF6FF452C400D884FF6FF7606EA82
:100ED00005252C434FF6DF752A400D8906EA0515D6
:100EE0002A434D8806EA05152A43154DA84202D02B
:100EF000144DA8421DD14FF67F752A404D894FF6FB
:100F0000FF7606EA05152A434FF6BF752A408D88FD
:100F100006EA05152A434FF6FF352B404FF2FF75C1
:100F20002B408D8906EA85052B43CD8906EA850588
:100F30002B4383800483CD880587028470BD000025
:100F4000002C0140003401400A460021018B4FF281
:100F5000FF7319404FF6FF7303EA0223194301831D
:100F60007047000070B5002400220023058C4FF666
:100F7000FF6635400584028C8388848B4FF68F751D
:100F80002C404FF6FC752C400D882C434FF6FF5536
:100F90002A400D894FF6FF7606EA05252A434D883B
:100FA00006EA05252A43154DA84202D0144DA84251
:100FB0001DD14FF2FF752A404D894FF6FF7606EAA4
:100FC00005252A434FF6FF352A408D8806EA052578
:100FD0002A434EF6FF752B404DF6FF752B408D8949
:100FE00006EA05152B43CD8906EA05152B438380B8
:100FF0008483CD888587028470BD0000002C014069
:10100000003401400A460021818B4FF6F7731940E6
:1010100011438183704781867047018770478187BC
:1010200070470000002202881D4B98420ED01D4BD5
:1010300098420BD0B0F1804F08D01B4B984205D09E
:101040001A4B984202D01A4B984204D14FF68F7334
:101050001A404B881A43174B984207D0164B9842B8
:1010600004D04FF6FF431A40CB881A4302808B8886
:1010700083850B8803850A4B98420BD0094B984215
:1010800008D00E4B984205D00D4B984202D00D4B24
:10109000984201D10B7A03860123838270470000B6
:1010A000002C0140003401400004004000080040D2
:1010B000000C0040001000400014004000400140BF
:1010C000004401400048014008B50020009040F273
:1010D00025511B4800F057F858B11949091D0988D6
:1010E000C8B200F07DF940F22551154800F030F803
:1010F00025E040F22441124800F045F8F8B11048CC
:1011000000880F48001D008800F082F90D49087022
:10111000002000900AE000F04BF90B49BDF80020D8
:101120008854BDF80000401C80B20090BDF800005B
:10113000044909788842EEDB01200449087008BDA3
:101140000038014001000020340000200000002091
:1011500010B50022002340F66A14A14200D100BF5E
:101160000A1201249440A3B2DC43048010BD21B1D3
:10117000828942F40052828104E082894DF6FF7335
:101180001A408281704770B5024600240023002572
:10119000002040F66A16B14200D100BFC1F34215EB
:1011A00001F01F03012606FA03F3012D02D19689EF
:1011B000334006E0022D02D1168A334001E0968AC0
:1011C00033400C12012606FA04F41688344013B199
:1011D0000CB1012000E0002070BDF0B503460024F2
:1011E00000260025002040F66A17B94200D100BF52
:1011F0001846C1F3421401F01F06012707FA06F54D
:10120000012C01D10C3004E0022C01D1103000E09F
:1012100014301AB107682F43076002E00768AF4334
:101220000760F0BD2DE9F04786B005460E46002464
:10123000A24600BFA1460027B08900B100BF2F46DB
:101240002C8A4CF6FF700440F08804432C82AC8951
:101250004EF6F3100440B088318908437189084381
:101260000443AC81AC8A4FF6FF400440B08904438C
:10127000AC8201A8FFF708FC1F48874202D1DDF8C5
:1012800010A001E0DDF80CA0A88900F4004040B1F6
:101290000AEBCA0000EB0A1031684900B0FBF1F814
:1012A00007E00AEBCA0000EB0A1031688900B0FBC6
:1012B000F1F86420B8FBF0F004012009642101FB7F
:1012C0001089A88900F4004040B1322000EBC90029
:1012D000B0FBF1F000F00700044308E0322000EB1F
:1012E00009106421B0FBF1F000F00F0004432C81E1
:1012F00006B0BDE8F08700000038014000BFFEE7FF
:1013000002E008C8121F08C1002AFAD170477047CE
:10131000002001E001C1121F002AFBD1704710B567
:1013200000F0AEF900F004F800F0F2F910BD000092
:1013300010B501210D20FFF797FB01218803FFF76E
:1013400093FB01210148FFF7DDF810BD00023000DA
:1013500008B5002100916FF07F414FF0E02251610C
:10136000002191610521116114E000214FF0E0227C
:1013700091610E4909684FF47A72B1FBF2F1C1F143
:101380008071009100BF4FF0E0218969009A91427D
:10139000F9D8401E0028E8DC4FF0E021096921F06F
:1013A00001014FF0E022116108BD0000040000209F
:1013B00000200A4991F80111084A32F8110011463B
:1013C00091F80111491C82F80111114691F801119F
:1013D000802902DB002182F801117047B40000204F
:1013E0000A4991F80011094A22F81100114691F8B2
:1013F0000011491C82F80011114691F80011802952
:1014000002DB002182F8001170470000B4000020C8
:101410000D4890F801010C4991F80011884208DC50
:10142000094890F80001084991F80111401A80B26A
:101430007047054890F80101C0F18000024991F819
:101440000011084480B2F3E7B40000208EB00027FA
:10145000BA4600240025002688A000680A90A1460C
:10146000A34600200790FFF75AFFFFF78DFB40F2DD
:101470004720FFF775FB40F29530FFF77BFBFA2022
:10148000FFF7E2FBFFF76EF9FFF732FA00BF09E062
:101490000AA9C85D0021FEF752FF0520FFF758FF9B
:1014A000781CC7B2042FF3DB4FF4FA60FFF750FF4C
:1014B00000204FF4FA713223CDE90231CDE9041056
:1014C00041F28830C82100230222CDE90010012119
:1014D0000520FEF778FE0520FFF73AFF00220221E3
:1014E0000520FEF7C5FE41F27070FFF731FF0520C1
:1014F000FEF70EFF0520FFF72BFF00210520FEF76A
:101500001EFF0520FFF724FF0120002142F6E062C4
:10151000C823CDE9002102904FF496720520FEF712
:10152000C1FE40F6C410FFF713FFA5E008A8FFF7BF
:1015300075F99DF8200073280BD00AA8FEF73AFE33
:10154000FFF7FAF94FF0000AD3461420FFF700FF27
:1015500092E09DF8220000F00A000A280BD10AA8A8
:10156000FEF728FEFFF7E8F94FF0000AD3461420F3
:10157000FFF7EEFE80E0BAF1000F0FD10AA8FFF7E7
:1015800027F89DF8210000F0080008B14FF0010A8B
:101590004FF0000B1420FFF7DBFE6DE09DF82600F6
:1015A000C8220121FFF7ACF804469DF82500C822A7
:1015B0000021FFF7A5F806469DF8230064220021CC
:1015C000FFF79EF80546F4B9EEB9E5B9BBF1000F97
:1015D0000CD14FF0010B4FF00009002003460246EA
:1015E000014600900AA8FFF71CF803E009F1140077
:1015F0001FFA80F9B9F5FA7F28DB0AA8FEF7E8FFA1
:101600004FF0000B22E04FF0000BD946A1192944FE
:1016100008B2FEF7CEFF0D90A11B491B08B2FEF7E2
:10162000C8FF0C90A11B294408B2FEF7C2FF0B9023
:10163000A119491B08B2FEF7BCFF8046CDF8008017
:101640000AA8DDE90B320D99FEF7EBFF9DF82200A9
:1016500000F00500052806D1079800F005000528D0
:1016600001D0FFF751F9FFF76FF99DF822000790BD
:101670001420FFF76DFE00BF58E7000001020304CD
:1016800008B54FF44070FFF731F801208DF80300E2
:1016900000208DF802008DF8010025208DF8000053
:1016A0006846FEF7EBFF08BD08B500210091C0F3C6
:1016B00008010B4A11800AE0BDF80010491C89B2EC
:1016C0000091BDF80010B1F5FA5F00DD08BD0449D6
:1016D000091F098801F080010029EDD000BFF5E75E
:1016E0000438014038B504460D46002000900090B3
:1016F00009E09DF80010605CFFF7D6FF9DF8000040
:10170000401CC0B200909DF80000A842F1DB38BD3B
:1017100000B585B04FF40070ADF8100003208DF8CF
:10172000120018208DF8130004A91E48FEF75EFE73
:101730004FF48060ADF8100048208DF8130004A924
:101740001848FEF753FE4FF4E13000900020ADF84A
:101750000400ADF80600ADF80800ADF80C000C2050
:10176000ADF80A0069461048FFF75CFD0E48008896
:101770000D48001D008840F225510B48FFF7E8FC9A
:10178000012240F225510848FFF727FD012240F2CF
:1017900024410548FFF721FD01210348FFF7E7FC3D
:1017A00005B000BD000801400038014001420000C2
:1017B00000000000000000000100FFFFFFFFFFFF2E
:1017C000401F00003C0000000000FA00FFFFFFFF88
:1017D000000000000F0000000100FFFFFFFFFFFFFF
:1017E000E02E00003C0000000000FFFF7304FFFF3C
:1017F00000000000190000000100FFFFFFFFFFFFD5
:10180000A02800002800000000004702FFFFFFFFA3
:10181000000000000F0000000100FFFFFFFFFFFFBE
:10182000E02E00003C0000000000FFFFFA00FFFF78
:10183000000000001900000004000000000000008B
:1018400000000000000000000100FFFFFFFFFFFF9D
:10185000401F00003C0000000000FA00FFFFFFFFF7
:10186000000000000F0000000100FFFFFFFFFFFF6E
:10187000E02E00003C0000000000FFFF9503FFFF8A
:1018800000000000190000000100FFFFFFFFFFFF44
:10189000A02800002800000000004702FFFFFFFF13
:1018A000000000000F0000000100FFFFFFFFFFFF2E
:1018B000E02E00003C0000000000FFFFFA00FFFFE8
:1018C00000000000190000000400000000000000FB
:1018D00000000000000000000100FFFFFFFFFFFF0D
:1018E000401F00003C0000000000FA00FFFFFFFF67
:1018F000000000000F0000000100FFFFFFFFFFFFDE
:10190000E02E00003C0000000000FFFF95034702AE
:1019100000000000190000000100FFFFFFFFFFFFB3
:10192000A02800002800000000004702FFFFFFFF82
:10193000000000000F0000000100FFFFFFFFFFFF9D
:10194000E02E00003C0000000000FFFFFA00FFFF57
:10195000000000001900000004000000000000006A
:1019600000000000000000000100FFFFFFFFFFFF7C
:10197000401F00003C0000000000FA00FFFFFFFFD6
:10198000000000000F0000000100FFFFFFFFFFFF4D
:10199000E02E00003C0000000000FFFFB602FFFF49
:1019A00000000000190000000100FFFFFFFFFFFF23
:1019B000A02800002800000000004702FFFFFFFFF2
:1019C000000000000F0000000100FFFFFFFFFFFF0D
:1019D000E02E00003C0000000400000000000000B9
:1019E00000000000000000000100FFFFFFFFFFFFFC
:1019F000A0280000280000000000FA00FFFFFFFF01
:101A0000000000000F0000000100FFFFFFFFFFFFCC
:101A1000E02E00003C0000000000FFFFFA00FFFF86
:101A200000000000190000000100FFFFFFFFFFFFA2
:101A3000E01500004600000000004702FFFFFFFF26
:101A4000000000000F0000000100FFFFFFFFFFFF8C
:101A5000E02E0000460000000000FFFF9503FFFF9E
:101A60000000000019000000040000000000000059
:101A700000000000000000000100FFFFFFFFFFFF6B
:101A8000A0280000280000000000FA00FFFFFFFF70
:101A9000000000000F0000000100FFFFFFFFFFFF3C
:101AA000E02E00003C0000000000FFFFFA00FA00FA
:101AB00000000000190000000100FFFFFFFFFFFF12
:101AC000E01500004600000000004702FFFFFFFF96
:101AD000000000000F0000000100FFFFFFFFFFFFFC
:101AE000E02E0000460000000000FFFF9503FFFF0E
:101AF00000000000190000000400000000000000C9
:101B000000000000000000000100FFFFFFFFFFFFDA
:101B1000A0280000280000000000FA00FFFFFFFFDF
:101B2000000000000F0000000100FFFFFFFFFFFFAB
:101B3000E02E00003C0000000000FFFFFA00FFFF65
:101B400000000000190000000100FFFFFFFFFFFF81
:101B5000E01500004600000000004702FFFFFFFF05
:101B6000000000000F0000000100FFFFFFFFFFFF6B
:101B7000E02E0000460000000000FFFF7304FFFF9E
:101B80000000000019000000040000000000000038
:101B900000000000000000000100FFFFFFFFFFFF4A
:101BA000A0280000280000000000FA00FFFFFFFF4F
:101BB000000000000F0000000100FFFFFFFFFFFF1B
:101BC000E02E00003C0000000000FFFFFA00FFFFD5
:101BD00000000000190000000100FFFFFFFFFFFFF1
:101BE000E01500004600000000004702FFFFFFFF75
:101BF000000000000F0000000100FFFFFFFFFFFFDB
:101C0000E02E00004600000004000000000000007C
:101C10000000000000000000B817000809010000E3
:101C20004818000809010000D8180008090300003E
:101C30006819000808030000E819000809010000FD
:101C4000781A000809030000081B000809010000B9
:101C5000981B000808010000781C00080000002004
:101C60003400000000130008AC1C00083400002001
:101C70008C090000101300080000000000A24A04B4
:101C8000000000000000000001020304060708092C
:101C9000000000000000000000000000010203043A
:0C1CA000010203040607080902040608FC
:0400000508000131BD
:00000001FF
